:100000000C949D000C94BA000C94BA000C94BA00A5
:100010000C94BA000C94BA000C94BA000C94BA0078
:100020000C94BA000C94BA000C94BA000C94BA0068
:100030000C94BA000C94BA000C94BA000C94BA0058
:100040000C94BA000C94BA000C94BA000C94BA0048
:100050000C94BA00003E1C08003E5149453E004247
:100060007F400042615149462141454B31181412ED
:100070007F1027454545393C4A49493001710905FA
:10008000033649494936064949291E000060600087
:1000900000000000007C041804783C4040207C04F0
:1000A0003F44402048545454247C080404087C14E1
:1000B00014140838444444387C0404047800417F14
:1000C000400000447D40003854545418384444449F
:1000D0007F38444444287F4444443820545454785E
:1000E00001017F01017F404040407F4141221C7F50
:1000F0000204087F41417F41417F090909062649E1
:100100004949327F494949363E414141223F4040B9
:10011000403F2040413F017F091929461F204020D0
:100120001F3E4141413E7F494949417F0204027FD0
:100130007E1111117E3E4149497A11241FBECFE53F
:10014000D4E0DEBFCDBF11E0A0E6B0E0ECE9F0E125
:1001500002C005900D92AC34B107D9F723E0ACE4AE
:10016000B1E001C01D92AE35B207E1F70E94EB038A
:100170000C944C080C9400000F931F93CF9329B359
:1001800020952F738091580140915601509157014D
:10019000A5E4B1E0E0E5F1E00BE411E09D91692F09
:1001A0006223C1E009F4C0E071E0382F392309F47B
:1001B00070E0C7130FC0108231960A171B0771F742
:1001C000809358015093570140935601CF911F914E
:1001D0000F9108953081323040F0108261110AC0D1
:1001E000392F30958323492BE7CF3F5F308332305F
:1001F00019F7F3CF892B592BDFCF21E030E001C075
:10020000220F8A95EAF780915701922F90959823B3
:1002100090935701982F922381E009F480E008958C
:1002200084EA86BF06B607FEFDCF089583B984E849
:1002300086BF06B607FEFDCF0895E6E6F1E088EF3B
:1002400091E0DF019C011D9221503040E1F70895BB
:10025000CF93DF93EC010E94100180EA0E94160107
:100260008D2F0E9416018C2F0E9416010E941001F2
:1002700081EA0E94160184E886BF06B607FEFDCF1C
:1002800083B194E996BF9AE19A95F1F700C0DF91A6
:10029000CF910895EF92FF921F93CF93DF93EC01DC
:1002A00080E2E82EFF24F394C7010E942801182F52
:1002B000C70101960E942801982F812F8F3F980730
:1002C00089F09983888382E0E80EF11C229628E267
:1002D000E21621E0F20641F7DF91CF911F91FF90E6
:1002E000EF90089519821882EECFCE9B02C0C69A75
:1002F0000895C69808958435C8F46033B8F4962FED
:10030000969596959695E82FF0E084E5989FE00DF8
:10031000F11D1124EA59FE4F677021E030E001C061
:10032000220F6A95EAF78081822B808308955F927D
:100330006F927F928F929F92AF92BF92CF92DF92F5
:10034000EF92FF920F931F93CF93DF9300D000D0D3
:1003500000D0CDB7DEB7B82EA62ECA014AE0BE0146
:100360006F5F7F4F0E94B407E12C85E0782EE1E0BB
:10037000F0E0EC0FFD1FEE0DF11D0081011116C024
:1003800026960FB6F894DEBF0FBECDBFDF91CF919A
:100390001F910F91FF90EF90DF90CF90BF90AF90A3
:1003A0009F908F907F906F905F90089500530A30D8
:1003B00068F5FE2CFF0CFE0CFF0CFB0C079D80016A
:1003C0001124075A1F4F612CF8018490D12CC12CA5
:1003D000912C562C5F0CC4010C2C02C0959587956E
:1003E0000A94E2F780FF05C06A2D6C0D852D0E94EE
:1003F0007B01FFEFCF1ADF0A87E0C816D10459F757
:1004000063940F5F1F4FE5E06E12DECFE394AFCF32
:10041000BF92CF92DF92EF92FF920F931F93CF93F1
:10042000DF93C82FD62F8A0185E0B82EBC0EF801C5
:10043000C490F12CE12CD12CC6010E2C02C0959554
:1004400087950A94E2F780FF05C06D2F6E0D8C2F03
:100450000E947B01FFEFEF1AFF0A87E0E816F10424
:1004600059F70F5F1F4FCF5FCB11E1CFDF91CF91D6
:100470001F910F91FF90EF90DF90CF90BF90089564
:10048000EF92FF920F931F93CF93DF93C82FE62E27
:10049000F22E8A01D0E0F801419151918F016E2D29
:1004A0008C2F0E940802DF5FCA5FFD12F4CFDF913C
:1004B000CF911F910F91FF90EF9008951F93CF93CD
:1004C000DF93C82F142FD52F462F50E0682F83E0DD
:1004D0000E9497014BE850E06C2F89E00E940802CF
:1004E000412F5D2F6C2F84E1DF91CF911F910C94F0
:1004F0009701CF93C0E060E08C2F0E947B016FE2F8
:100500008C2F0E947B01CF5FC435A9F7C0E06C2F10
:1005100080E00E947B016C2F83E50E947B01CF5F0E
:10052000C033A9F7CF91089589B380958F738093D5
:1005300058011092570110925601E0E5F1E0108247
:100540001182128213821482158208951F93CF9311
:10055000DF93D82F192FC62F0E94100180EA0E9426
:100560001601812F0E9416018D2F0E9416018C2FDB
:100570000E94160184E986BF8AE18A95F1F700C0DE
:100580008FE19EE40197F1F700C00000DF91CF9169
:100590001F910895FF920F931F93CF93DF93EC0168
:1005A00000E211E06881F9802296C8010E94A6024B
:1005B0006F2DC80101960E94A6020E5F1F4F0832E0
:1005C00081E0180779F7DF91CF911F910F91FF908C
:1005D00008956623A9F0C19AC49898E087FF12C0D5
:1005E000C59AC79A22E02A95F1F700C0C79822E081
:1005F0002A95F1F700C0880F915081F7C49A0895A9
:10060000C198EACFC598EDCF60E00C94E902CF9392
:10061000DF9380E40E94040380E80E940403C6E69E
:10062000D1E061E089910E94E90283E0CE35D807EC
:10063000C1F7DF91CF910895BF92CF92DF92EF92F1
:10064000FF920F931F93CF93DF93CDB7DEB76297DF
:100650000FB6F894DEBF0FBECDBF0E941D010E94F1
:10066000790240915B0150915C0162E082E00E945E
:100670009701E0906000EE0CEE0C81E4C82E81E062
:10068000D82E98E2F92E10E000E0F601808190E08B
:10069000002E02C0959587950A94E2F780FF05C069
:1006A0006F2D8E2D800F0E947B010F5F1F4F043036
:1006B000110559F7F394FFEFCF1ADF0A8CE2F81215
:1006C000E2CF0DE511E0F801C080CC0CCC0CD1805C
:1006D000DD0CDD0CF12CE12CBD2CBF0C6B2D8C2D19
:1006E0008E0D0E947B01E394F4E0EF12F7CFF394B8
:1006F000FF12F1CF0E5F1F4F81E00536180719F783
:1007000080915A01882319F182E1E5E6F0E0DE01EB
:10071000119601900D928A95E1F729E0AE014F5FA5
:100720005F4F62E18CE00E9440020E9407036296E4
:100730000FB6F894DEBF0FBECDBFDF91CF911F91F2
:100740000F91FF90EF90DF90CF90BF900895809130
:100750005901882351F38AE0E7E7F0E0DE011196C2
:1007600001900D928A95E1F725E0AE014F5F5F4F52
:1007700062E18BE1D8CFEF92FF920F931F93CF935B
:100780008AE08093600010925C0110925B011092ED
:100790005A011092590192B789B389270E94A9077B
:1007A0000DE511E0C1E083E1E82EF12C0E94A407E1
:1007B000B7010E9414078F5FF8018083C1830E5F29
:1007C0001F4FCE5FC93091F7CF911F910F91FF90CE
:1007D000EF900C941C03CDB7DEB7A2970FB6F89438
:1007E000DEBF0FBECDBF87B3836B87BBC49AC798EC
:1007F000C09AC0988FE19EE40197F1F700C0000015
:10080000C09A81E20E9404038FEB0E94040384E0FB
:100810000E94040384E10E94040380E20E94040316
:100820008CE00E940403E6E6F1E088EF91E0DF014E
:100830009C011D9221503040E1F78AB3807C8ABB35
:100840008BB38F638BBB83E083BF11B888E480B91F
:1008500084E086BF90E080E00E942801182F81E0AC
:1008600090E00E942801123511F48035C1F062E554
:1008700090E080E00E94A60260E581E090E00E94A6
:10088000A60261E082E090E00E94A602CE010196FD
:1008900028E0DC011D922A95E9F70E94CA020E9415
:1008A0009402D698DE98BE9AC69810926501312CB3
:1008B000212C33E0E32EF12C43E1C42ED12C54E063
:1008C000452E512C63E0662E61E0762E72E0A72E55
:1008D000B12C88248394912C0E9475010E94BC0045
:1008E00080914C0190914D01009709F077C080E014
:1008F0000E94FD00882339F080914F01882319F070
:10090000815080934F0181E00E94FD00882339F0DF
:1009100080914F01811103C081E080934F0184E0F9
:100920000E94FD0010914F01882349F0113009F019
:100930004EC090924D0180924C010E9494020E9400
:100940001D010E9479028AE0E1E8F0E0DE0159969B
:1009500001900D928A95E1F782E1EBE8F0E0DE018B
:10096000119601900D928A95E1F725E0AE01475E60
:100970005F4F69E08BE10E94400229E0AE014F5FCA
:100980005F4F61E18FE00E9440028CE0EDE9F0E012
:10099000DE01119601900D928A95E1F726E0AE01F5
:1009A0004F5F5F4F6FE188E10E94400244E550E0F5
:1009B0006DE011116FE187E00E9408020E940703B9
:1009C000EFE1FEE43197F1F700C0000085CF11118F
:1009D000B6CFB0924D01A0924C01AFCF81309105BE
:1009E00009F075C085E00E94FD00882331F0109267
:1009F0004D0110924C010E9494020E941D010E9420
:100A000079027A82698221E0AE014F5F5F4F67E22F
:100A10008BE40E94400284E1E9EAF0E0DE011196F5
:100A200001900D928A95E1F72AE0AE014F5F5F4F8A
:100A300064E086E00E94400288E1EDEBF0E0DE0138
:100A4000119601900D928A95E1F72CE0AE014F5F6F
:100A50005F4F6CE086E00E94400286E1E5EDF0E049
:100A6000DE01119601900D928A95E1F72BE0AE011F
:100A70004F5F5F4F64E186E00E94400288E1EBEE49
:100A8000F0E0DE01119601900D928A95E1F72CE0DD
:100A9000AE014F5F5F4F6CE186E00E94400280E153
:100AA000E3E0F1E0DE01119601900D928A95E1F705
:100AB00028E0AE014F5F5F4F64E286E00E94400293
:100AC0000E9407038FE19EE40197F1F77DCF82300A
:100AD000910509F050C084E00E94FD00882309F4CC
:100AE00044C00E94BB0310926501F0924D01E09258
:100AF0004C010E949402312C212CCE0149960E9477
:100B00004A010E941D010E9479028AE0E3E1F1E0BE
:100B1000DE01119601900D928A95E1F725E0AE0174
:100B20004F5F5F4F61E08DE10E944002498D5A8D19
:100B300061E08CE00E945E024B8D5C8D62E084E19E
:100B40000E945E024D8D5E8D63E08CE10E945E022C
:100B50004F8D58A164E084E20E945E020E94070368
:100B6000AFE1BEE41197F1F72FCF85E00E94FD00C1
:100B70008111B7CFC2CF8330910509F0D7C08091E2
:100B80005A018823C1F1211036C08091650181117D
:100B90002FC000915B0110915C01CE0101960E9473
:100BA0004A01FE013196DF0190E080E0482F2D914F
:100BB0003D912017310708F059C023E005C0668138
:100BC000778171876087215032974217C0F3880F71
:100BD000991FE1E0F0E0EC0FFD1FE80FF91F118312
:100BE0000083CE0101960E94CA0281E080936501D4
:100BF0000E949402312C20905A0112E101E00E94DF
:100C000075010E94BC0080915A01882309F441C0FB
:100C1000311032C033243394809158018111312C2A
:100C2000EFE1FEE43197F1F700C00000115039F711
:100C300080915A0190915901892BA9F40DE511E099
:100C4000D80111968C9111978F5F11968C93119703
:100C50002C919091600029134CC08A3009F049C052
:100C600081E080935A010E941C0336CE01968430A5
:100C7000910509F09BCFB9CF809157011092570190
:100C8000882371F250924D0140924C010E949402CF
:100C9000C7CF85E00E94FD00882329F0809159018B
:100CA00080278093590180915901882339F082E08F
:100CB0000E94FD0083E00E94FD00B2CF82E00E940E
:100CC000FD00882339F080916000823018F0815057
:100CD0008093600083E00E94FD00882309F4A0CF88
:100CE00080916000833108F09BCF8F5F809360001C
:100CF00097CF8B3098F080915B0190915C010196C9
:100D000090935C0180935B010E94A407B6010E944E
:100D100014078F5FF801808321E021830E5F1F4F4E
:100D200031E00536130709F08BCF9DCF049709F00A
:100D3000D3CD80E00E94FD00882339F080914E01E0
:100D4000882319F0815080934E0181E00E94FD00BC
:100D5000882339F080914E01811103C081E0809396
:100D60004E0184E00E94FD00882381F080914E01B5
:100D7000811150C00E94BB0310926501F0924D0199
:100D8000E0924C010E949402312C212C0E941D0102
:100D90000E9479028CE0EDE1F1E0DE011196019014
:100DA0000D928A95E1F726E0AE014F5F5F4F69E053
:100DB0008AE10E9440028EE0E9E2F1E0DE01119654
:100DC00001900D928A95E1F727E0AE014F5F5F4FEA
:100DD00061E186E10E9440028AE0E7E3F1E0DE01A2
:100DE000119601900D928A95E1F725E0AE014F5FD3
:100DF0005F4F6FE18AE10E94400280914E0144E51D
:100E000050E06DE081116FE180E10E9408020E94D4
:100E1000070362CD813009F0B9CF10924D011092D5
:100E20004C010E949402B2CF97FB072E16F4009457
:100E300007D077FD09D00E94280707FC05D03EF4B3
:100E4000909581959F4F0895709561957F4F089576
:100E5000AA1BBB1B51E107C0AA1FBB1FA617B707E0
:100E600010F0A61BB70B881F991F5A95A9F78095FC
:100E70009095BC01CD010895CF92DF92EF92FF9241
:100E8000CF93DF93CDB7DEB72A970FB6F894DEBFC6
:100E90000FBECDBF89879A87A985BA852D913D91CF
:100EA0004D915C9129833A834B835C83232B242BC4
:100EB000252B41F424E239ED4BE557E029833A83B1
:100EC0004B835C8369817A818B819C812DE133EF37
:100ED00041E050E00E94E90769017A01A7EAB1E424
:100EE0009B01AC010E94080869837A838B839C83F1
:100EF000ACEEB4EFA70196010E9416089B01AC016D
:100F000089819A81AB81BC81820F931FA41FB51F79
:100F1000B7FF03C00197A109B048E985FA8580832E
:100F20009183A283B3839F772A960FB6F894DEBF8E
:100F30000FBECDBFDF91CF91FF90EF90DF90CF90AC
:100F400008950E943C07089581E690E00E943C07C6
:100F50000895B0E0A0E08093610090936200A093B8
:100F60006300B09364000895BB274A3031F499239D
:100F700022F4BDE2909581959F4F0C94C007BB274A
:100F8000FB015527AA27880F991FAA1FA41710F045
:100F9000A41B83955051B9F7A05DAA3308F0A95D51
:100FA000A193009779F7B111B1931192CB010C94F1
:100FB000D907DC01FC01672F71917723E1F73297A4
:100FC00004C07C916D9370836291AE17BF07C8F324
:100FD0000895052E97FB1EF400940E94000857FD0B
:100FE00007D00E941B0807FC03D04EF40C940008A5
:100FF00050954095309521953F4F4F4F5F4F089545
:1010000090958095709561957F4F8F4F9F4F089574
:101010000E943D08A59F900DB49F900DA49F800D48
:10102000911D11240895B7FF0C9408080E94080828
:10103000821B930B0895A1E21A2EAA1BBB1BFD0174
:101040000DC0AA1FBB1FEE1FFF1FA217B307E407A7
:10105000F50720F0A21BB30BE40BF50B661F771FFF
:10106000881F991F1A9469F76095709580959095DF
:101070009B01AC01BD01CF010895A29FB001B39FB8
:10108000C001A39F700D811D1124911DB29F700D91
:0C109000811D1124911D0895F894FFCFDC
:10109C000A01000000350130012B012601900021CE
:1010AC00011C0126011701F90030010D01FE00267B
:1010BC0001EA002101EA003501260121010301FEAC
:1010CC0000E00030010801E5002601FE00080130B7
:1010DC000117013501300117010801B300B800C731
:1010EC0000D1009F00DB009000BD00DB00D100B3FD
:1010FC0000B800A400B300BD00DB009000DB009042
:10110C0000BD00DB00D100B3009500AE009A009F3B
:10111C0000DB00CC00B300A900DB00D100B300B8A9
:10112C00009000C700BD009000D100DB00D600BDD0
:10113C0000C700C700A400AE00C700D100C200DB8E
:10114C0000BD00FE000801210117012601FE00264A
:10115C000135010D01F400170112010D01350130AB
:10116C0001EF00EA002101FE003001E500F4001758
:0C117C0001060F06090102040810200003
:00000001FF
