:100000000C942A000C9447000C9447000C94470071
:100010000C9447000C9447000C9447000C94470044
:100020000C9447000C9447000C9447000C94470034
:100030000C9447000C9447000C9447000C94470024
:100040000C9447000C9447000C9447000C94470014
:100050000C94470011241FBECFE5D4E0DEBFCDBF16
:1000600010E0A0E6B0E0E6EAF8E002C005900D92EC
:10007000AE3EB107D9F722E0AEEEB0E001C01D926E
:10008000A83FB207E1F70E9411020C9451040C94AE
:10009000000089B380958C718093F3001092F20078
:1000A0001092F100EEEEF0E01082118212820895BB
:1000B00021E030E001C0220F8A95EAF78091F2003A
:1000C000922F909598239093F200982F922381E09D
:1000D00009F480E008958435C8F46033B8F4962FAD
:1000E000969596959695E82FF0E084E5989FE00D1B
:1000F000F11D1124E050FF4F677021E030E001C096
:10010000220F6A95EAF78081822B80830895CF922F
:10011000DF92EF92FF920F931F93CF93DF93C82F3D
:100120007B01D5E0D80FF701C1907F0110E000E01E
:10013000D12CC601002E02C0959587950A94E2F74E
:1001400080FF05C062E1600F8C2F0E946B000F5F83
:100150001F4F0730110569F7CF5FCD13E4CFDF9153
:10016000CF911F910F91FF90EF90DF90CF90089566
:100170000F931F93CF93DF93182F110F110FC62FDB
:10018000CC0FCC0F04E00C0FD0E06C2F812F8D0F23
:100190000E946B00DF5FD430C1F7CF5FC013F4CF94
:1001A000DF91CF911F910F9108956623A9F0C19A15
:1001B000C49898E087FF12C0C59AC79A22E02A9592
:1001C000F1F700C0C79822E02A95F1F700C0880F28
:1001D000915081F7C49A0895C198EACFC598EDCFA0
:1001E00060E00C94D5008F929F92AF92BF92CF9215
:1001F000DF92EF92FF920F931F93CF93DF93CDB7D0
:10020000DEB762970FB6F894DEBF0FBECDBFE0E059
:10021000F1E088EF91E0DF019C011D922150304018
:10022000E1F710E060E0812F0E946B006FE2812F08
:100230000E946B001F5F1435A9F710E0612F80E06A
:100240000E946B00612F83E50E946B001F5F1033DB
:10025000A9F78091F6004AE0BE016F5F7F4F90E002
:100260000E94B90327E0D22EB12C35E0A32EE1E0A5
:10027000F0E0EC0FFD1FEB0DF11D0081011158C0E6
:100280006AE0809160000E94B80008EF10E080E012
:10029000E82E81E0F82ED80111966C9111978C917F
:1002A0000E94B8000E5F1F4FE016F106A1F7809183
:1002B000F500882309F469C082E1E5E6F0E0DE019B
:1002C000119601900D928A95E1F7FE0131967F011A
:1002D0001CE0D7016D917D917D01812F0E948700E7
:1002E0001A5F1234B1F780E40E94F00080E80E94A7
:1002F000F00000E011E061E0F80181918F010E94BF
:10030000D500F2E0083F1F07B1F762960FB6F894E8
:10031000DEBF0FBECDBFDF91CF911F910F91FF9038
:10032000EF90DF90CF90BF90AF909F908F90089507
:1003300000530A3030F50A9D8001112405541F4FE7
:100340009BEFC92ECD0CD8018D908D01F12CE12CA5
:10035000912CC4010E2C02C0959587950A94E2F762
:1003600080FF05C062E06E0D8C2D0E946B00BFEF18
:10037000EB1AFB0AE7E0EE16F10459F7C394CD102F
:10038000E2CFB394F6E0DF0E72CF8091F4008823C1
:1003900009F4A9CF8AE0E7E7F0E0DE0111960190C9
:1003A0000D928A95E1F7FE0131967F011BE1D7019D
:1003B0006D917D917D01812F0E9487001A5F193315
:1003C000B1F791CFEF92FF920F931F93CF938AE0F3
:1003D000809360001092F7001092F6001092F500E2
:1003E0001092F40087E090E00E94AE0308EF10E066
:1003F000C1E083E1E82EF12C0E94A903B7010E941D
:1004000019038F5FF8018083C1830E5F1F4FCE5F9A
:10041000C93091F7CF911F910F91FF90EF900C94FD
:10042000F30087B3836B87BBC49AC798C09AC09800
:100430008FE19EE40197F1F700C00000C09A81E2CD
:100440000E94F0008FEB0E94F00084E00E94F00018
:1004500084E10E94F00080E20E94F0008CE00E94A3
:10046000F000E0E0F1E088EF91E0DF019C011D92F7
:1004700021503040E1F78AB3837E8ABB8BB38C6115
:100480008BBB83E083BF0E9449000E94E201B12C34
:10049000A12C04E810E0992493948824839480E0AC
:1004A000E82E81E0F82E93E1C92ED12CC091F50001
:1004B000CC2329F0A11003C00E944900B12CAC2E1E
:1004C000C2E129B320952C715091F1008091F30085
:1004D0004091F200A1E8B0E0EEEEF0E09D91692FCE
:1004E0006223D1E009F4D0E071E0392F382309F418
:1004F00070E0D71336C0108231960A171B0771F7C8
:100500008093F3004093F2005093F1009091F50036
:10051000992309F445C0B11038C0BB24B3948111AC
:10052000B12C8FE19EE40197F1F700C00000C150AB
:1005300041F68091F5009091F400892B79F4C8EF91
:10054000D0E089818F5F8983288190916000291391
:1005500057C08A3009F054C08092F5000E94F30021
:10056000A5CF3081323040F0108261110BC0392F9D
:1005700030958323592BC0CF3F5F3083323009F051
:10058000BBCFF2CF892B492BB7CF1092F200442377
:1005900041F20E94E2010E944900B12CA12CC1CF7E
:1005A00084E00E945800882329F08091F400892576
:1005B0008093F4008091F400882339F082E00E9457
:1005C000580083E00E945800ACCF82E00E9458009F
:1005D000882339F080916000823018F08150809338
:1005E000600083E00E945800882309F49ACF80912C
:1005F0006000833108F095CF8F5F8093600091CFCA
:100600008B3088F08091F6009091F70001969093DE
:10061000F7008093F6000E94A903B6010E94190317
:100620008F5F888399822296EC16FD0609F089CFA8
:1006300095CF97FB072E16F4009407D077FD09D0CD
:100640000E942D0307FC05D03EF4909581959F4FA5
:100650000895709561957F4F0895AA1BBB1B51E1CA
:1006600007C0AA1FBB1FA617B70710F0A61BB70B22
:10067000881F991F5A95A9F780959095BC01CD01C7
:100680000895CF92DF92EF92FF92CF93DF93CDB791
:10069000DEB72A970FB6F894DEBF0FBECDBF8987AD
:1006A0009A87A985BA852D913D914D915C912983B9
:1006B0003A834B835C83232B242B252B41F424E2A8
:1006C00039ED4BE557E029833A834B835C8369819D
:1006D0007A818B819C812DE133EF41E050E00E94D3
:1006E000EE0369017A01A7EAB1E49B01AC010E9423
:1006F0000D0469837A838B839C83ACEEB4EFA701EE
:1007000096010E941B049B01AC0189819A81AB81F7
:10071000BC81820F931FA41FB51FB7FF03C00197B1
:10072000A109B048E985FA8580839183A283B383C8
:100730009F772A960FB6F894DEBF0FBECDBFDF912C
:10074000CF91FF90EF90DF90CF9008950E944103EA
:10075000089581E690E00E9441030895B0E0A0E092
:100760008093610090936200A0936300B093640053
:100770000895BB274A3031F4992322F4BDE29095C5
:1007800081959F4F0C94C503BB27FB015527AA27D2
:10079000880F991FAA1FA41710F0A41B839550510E
:1007A000B9F7A05DAA3308F0A95DA193009779F786
:1007B000B111B1931192CB010C94DE03DC01FC0169
:1007C000672F71917723E1F7329704C07C916D9385
:1007D00070836291AE17BF07C8F30895052E97FB8B
:1007E0001EF400940E94050457FD07D00E942004C7
:1007F00007FC03D04EF40C940504509540953095B9
:1008000021953F4F4F4F5F4F08959095809570957C
:1008100061957F4F8F4F9F4F08950E944204A59F7F
:10082000900DB49F900DA49F800D911D11240895EB
:10083000B7FF0C940D040E940D04821B930B0895C6
:10084000A1E21A2EAA1BBB1BFD010DC0AA1FBB1FD4
:10085000EE1FFF1FA217B307E407F50720F0A21B46
:10086000B30BE40BF50B661F771F881F991F1A94B3
:1008700069F760957095809590959B01AC01BD01DD
:10088000CF010895A29FB001B39FC001A39F700D37
:10089000811D1124911DB29F700D811D1124911D88
:0608A0000895F894FFCF5B
:1008A6000A01000000B600B100AC00A7009300A248
:1008B600009D00A70098008E00B10089008400A763
:1008C6000004081026494949323F4040403F7F090D
:1008D60009090600000000007F091929461F20406B
:1008E600201F3E4141413E7F494949417F02040262
:1008F6007F7E1111117E3E4149497A3E5149453E5E
:1009060000427F400042615149462141454B311822
:1009160014127F1027454545393C4A494930017133
:0E0926000905033649494936064949291E008C
:00000001FF
