:100000000C94A0000C94BD000C94BD000C94BD0099
:100010000C94BD000C94BD000C94BD000C94BD006C
:100020000C94BD000C94BD000C94BD000C94BD005C
:100030000C94BD000C94BD000C94BD000C94BD004C
:100040000C94BD000C94BD000C94BD000C94BD003C
:100050000C94BD00003E1C08003E5149453E004244
:100060007F400042615149462141454B31181412ED
:100070007F1027454545393C4A49493001710905FA
:10008000033649494936064949291E000060600087
:1000900000000000007C041804783C4040207C04F0
:1000A0003F44402048545454247C080404087C14E1
:1000B00014140838444444387C0404047800417F14
:1000C000400000447D40003854545418384444449F
:1000D0007F38444444287F4444443820545454785E
:1000E0007F0814224101017F01017F404040407F91
:1000F0004141221C7F0204087F41417F41417F0929
:1001000009090626494949327F494949363E414154
:1001100041223F4040403F2040413F017F09192993
:10012000461F2040201F3E4141413E7F49494941F1
:100130007F0204027F7E1111117E3E4149497A00FF
:1001400011241FBECFE5D4E0DEBFCDBF11E0A0E695
:10015000B0E0E2ECFFE002C005900D92A833B107D9
:10016000D9F723E0A8E3B1E001C01D92AA36B20797
:10017000E1F70E9474030C94DF070C9400000F93C6
:100180001F93CF9329B320952F73809146014091FF
:10019000440150914501A0E3B1E0EDE3F1E007E354
:1001A00011E09D91692F6223C1E009F4C0E071E084
:1001B000382F392309F470E0C7130FC0108231962D
:1001C0000A171B0771F7809346015093450140932E
:1001D0004401CF911F910F9108953081323040F04A
:1001E000108261110AC0392F30958323492BE7CF44
:1001F0003F5F3083323019F7F3CF892B592BDFCF94
:1002000021E030E001C0220F8A95EAF78091450194
:10021000922F9095982390934501982F922381E0F7
:1002200009F480E0089584EA86BF06B607FEFDCF94
:10023000089583B984E886BF06B607FEFDCF08950A
:1002400082E28093700189E280936F0183E2809360
:100250006E0181E080936D018FEF80936C011092AD
:100260004B0110924A0110924901109248011092DC
:100270004701ECE4F1E02CE631E081E0808381830A
:1002800082838383848385838683878338962E172E
:100290003F07A1F70895E2E7F1E088EF91E0DF0181
:1002A0009C011D9221503040E1F70895CF93DF93D8
:1002B000EC010E94130180EA0E9419018D2F0E9417
:1002C00019018C2F0E9419010E94130181EA0E94DA
:1002D000190184E886BF06B607FEFDCF83B194E915
:1002E00096BF9AE19A95F1F700C0DF91CF910895FA
:1002F000EF92FF921F93CF93DF93EC0180E1E82E02
:10030000FF24F394C7010E945601182FC7010196DC
:100310000E945601982F812F8F3F980789F099836B
:10032000888382E0E80EF11C229628E1E21621E0A3
:10033000F20641F7DF91CF911F91FF90EF90089562
:1003400019821882EECFCE9B02C0C69A0895C69835
:1003500008958435C8F46033B8F4962F9695969531
:100360009695E82FF0E084E5989FE00DF11D1124AB
:10037000EE58FE4F677021E030E001C0220F6A9511
:10038000EAF78081822B808308955F926F927F923B
:100390008F929F92AF92BF92CF92DF92EF92FF9295
:1003A0000F931F93CF93DF9300D000D000D0CDB731
:1003B000DEB7B82EA62ECA014AE0BE016F5F7F4F9E
:1003C0000E94AA07E12C85E0782EE1E0F0E0EC0F36
:1003D000FD1FEE0DF11D0081011116C026960FB60E
:1003E000F894DEBF0FBECDBFDF91CF911F910F916B
:1003F000FF90EF90DF90CF90BF90AF909F908F9045
:100400007F906F905F90089500530A3068F5FE2C3E
:10041000FF0CFE0CFF0CFB0C079D80011124075AFA
:100420001F4F612CF8018490D12CC12C912C562C9B
:100430005F0CC4010C2C02C0959587950A94E2F7D5
:1004400080FF05C06A2D6C0D852D0E94A901FFEF6C
:10045000CF1ADF0A87E0C816D10459F763940F5FFB
:100460001F4FE5E06E12DECFE394AFCFBF92CF9285
:10047000DF92EF92FF920F931F93CF93DF93C82FDA
:10048000D62F8A0185E0B82EBC0EF801C490F12C5D
:10049000E12CD12CC6010E2C02C0959587950A94AB
:1004A000E2F780FF05C06D2F6E0D8C2F0E94A90111
:1004B000FFEFEF1AFF0A87E0E816F10459F70F5F24
:1004C0001F4FCF5FCB11E1CFDF91CF911F910F91E4
:1004D000FF90EF90DF90CF90BF900895EF92FF9242
:1004E0000F931F93CF93DF93C82FE62EF22E8A012E
:1004F000D0E0F801419151918F016E2D8C2F0E9417
:100500003602DF5FCA5FFD12F4CFDF91CF911F91FA
:100510000F91FF90EF9008951F93CF93DF93C82F13
:10052000142FD52F462F50E0682F83E00E94C5017D
:100530004BE850E06C2F89E00E943602412F5D2F7E
:100540006C2F84E1DF91CF911F910C94C501CF9363
:10055000C0E060E08C2F0E94A9016FE28C2F0E9406
:10056000A901CF5FC435A9F7C0E06C2F80E00E94DD
:10057000A9016C2F83E50E94A901CF5FC033A9F7C1
:10058000CF910895CF92DF92EF92FF921F93CF9376
:10059000DF93D62FC82F840F9927991F7C01862FB0
:1005A000820F9927991F6C01CE151F0494F0DF91DB
:1005B000CF911F91FF90EF90DF90CF900895612F22
:1005C0008C2F0E94A9011F5F1C151D04C4F3CF5F6F
:1005D000EBCF1D2FF9CF89B380958F7380934601A0
:1005E0001092450110924401EDE3F1E01082118276
:1005F0001282138214821582168208951F93CF935C
:10060000DF93D82F192FC62F0E94130180EA0E9472
:100610001901812F0E9419018D2F0E9419018C2F21
:100620000E94190184E986BF8AE18A95F1F700C02A
:100630008FE19EE40197F1F700C00000DF91CF91B8
:100640001F910895FF920F931F93CF93DF93EC01B7
:1006500000E111E06881F9802296C8010E94FE0243
:100660006F2DC80101960E94FE020E5F1F4F0831D8
:1006700081E0180779F7DF91CF911F910F91FF90DB
:1006800008956623A9F0C19AC49898E087FF12C024
:10069000C59AC79A22E02A95F1F700C0C79822E0D0
:1006A0002A95F1F700C0880F915081F7C49A0895F8
:1006B000C198EACFC598EDCF60E00C944103CF9389
:1006C000DF9380E40E945C0380E80E945C03C2E741
:1006D000D1E061E089910E94410383E0CA36D807E6
:1006E000C1F7DF91CF910895CDB7DEB7A4970FB6CC
:1006F000F894DEBF0FBECDBF87B3836B87BBC49AB0
:10070000C798C09AC0988FE19EE40197F1F700C0A6
:100710000000C09A81E20E945C038FEB0E945C03A0
:1007200084E00E945C0384E10E945C0380E20E94FA
:100730005C038CE00E945C03E2E7F1E088EF91E06B
:10074000DF019C011D9221503040E1F78AB3807C8B
:100750008ABB8BB38F638BBB83E083BF11B888E404
:1007600080B984E086BF90E080E00E945601182F97
:1007700081E090E00E945601123511F48035C1F0FD
:1007800062E590E080E00E94FE0260E581E090E09A
:100790000E94FE0261E082E090E00E94FE02CE0133
:1007A000019628E0DC011D922A95E9F70E942203B8
:1007B0000E94EB02D698DE98BE9AC69810927101FC
:1007C00010E01CA233E0232E312C0E94A3010E94D2
:1007D000BF008091390190913A01009709F07BC0E8
:1007E00080E00E940001882339F080913C01882339
:1007F00019F0815080933C0181E00E940001882320
:1008000039F080913C01811103C081E080933C016B
:1008100084E00E940001F0903C01882359F0B1E08F
:10082000FB1250C0E1E0F0E0F0933A01E0933901AF
:100830000E94EB020E944B010E94A7028AE0E0E6C0
:10084000F0E0DE01119601900D928A95E1F786E0C5
:10085000EAE6F0E0DE01599601900D928A95E1F703
:1008600025E0AE014F5F5F4F69E08AE10E946E02B2
:1008700023E0AE01475E5F4F61E180E20E946E02BD
:100880008CE0E0E7F0E0DE01119601900D928A9590
:10089000E1F726E0AE014F5F5F4F6FE188E10E9414
:1008A0006E0244E550E06DE0F1106FE180E10E94DE
:1008B00036020E945F038FE19EE40197F1F700C0CA
:1008C000000083CFF110B6CF22E030E030933A0140
:1008D00020933901ADCF8130910509F073C085E0D7
:1008E0000E940001882331F010923A0110923901E0
:1008F0000E94EB020E944B010E94A702A8E0B1E017
:10090000BA83A98321E0AE014F5F5F4F67E28BE4BA
:100910000E946E0284E1ECE7F0E0DE0111960190A6
:100920000D928A95E1F72AE0AE014F5F5F4F64E0D8
:1009300086E00E946E0288E1E0E9F0E0DE011196B7
:1009400001900D928A95E1F72CE0AE014F5F5F4F69
:100950006CE086E00E946E0286E1E8EAF0E0DE01EB
:10096000119601900D928A95E1F72BE0AE014F5F51
:100970005F4F64E186E00E946E0288E1EEEBF0E0FA
:10098000DE01119601900D928A95E1F72CE0AE01FF
:100990004F5F5F4F6CE186E00E946E0280E1E6ED02
:1009A000F0E0DE01119601900D928A95E1F728E0C2
:1009B000AE014F5F5F4F64E286E00E946E020E94CC
:1009C0005F0303CF8230910509F04EC084E00E949E
:1009D0000001882309F442C00E9420011092710195
:1009E00030923A01209239010E94EB02CE014996E1
:1009F0000E9478010E944B010E94A7028AE0E6EE65
:100A0000F0E0DE01119601900D928A95E1F725E064
:100A1000AE014F5F5F4F61E08DE10E946E02498D34
:100A20005A8D61E08CE00E948C024B8D5C8D62E0FF
:100A300084E10E948C024D8D5E8D63E08CE10E940A
:100A40008C024F8D58A164E084E20E948C020E94C7
:100A50005F03EFE1FEE43197F1F731CF85E00E94CB
:100A600000018111B9CFC2CF8330910509F0EEC1E9
:100A700080914B0190914901892BC9F1DCA0D110E3
:100A800036C08091710181112FC0009147011091F2
:100A90004801CE0101960E947801FE013196DF01E6
:100AA00090E080E0482F2D913D912017310708F00C
:100AB0004DC123E005C06681778171876087215031
:100AC00032974217C0F3880F991FE1E0F0E0EC0F76
:100AD000FD1FE80FF91F11830083CE0101960E94CC
:100AE000220381E0809371010E94EB0210E080916B
:100AF0004B0190914901892B01E00CA3811101C0A8
:100B00001CA28AE0F82EEE24E3940E94A3010E9426
:100B1000BF0080914B0190914901892B09F42CC1B0
:100B200011111AC111E080914601811110E08FE18D
:100B30009EE40197F1F700C00000FA94F110E5CFB0
:100B400080914B0190914901892B90914A01892B09
:100B500009F0A9C090916E0180916F0120916D0103
:100B6000820F80936F0120916C01920F90936E0120
:100B700082300CF03EC181E080936F0180936D0163
:100B800092302CF481E080936E0180936C019091FF
:100B90006E0199A320916F01022E000C330B892F57
:100BA0008952833090F440917001842F90E0B90114
:100BB0006E5F7F4F4617170609F03CF44096821788
:100BC00093071CF08FEF80936C012901A2E04A0E7D
:100BD000511C6CE471E07B01E6E0F0E090E080E025
:100BE000B9A16B2EBB0F7708A3014E5F5F4F5BA3CC
:100BF0004AA3470150E040E05F01A3E0AA0EB11C08
:100C0000D4010D914D01013009F0FBC0A9E0DA2EAD
:100C1000D49ED001D59EB00D11246D0105E0C00E0B
:100C2000D11C4C145D040CF4ECC01D96A217B30744
:100C30000CF4E7C0AAA1BBA1AE17BF070CF4E1C03A
:100C4000A614B7040CF4DDC033E0880F991F3A9561
:100C5000E1F7845B9E4F480F591FFA011082809183
:100C60004701909148010196909348018093470174
:100C700080916C01819580936C01B9A1BD321CF00B
:100C800081E080934B01FB0188E09191913059F014
:100C90008150D9F7685F7F4FE1E06C367E0799F7A6
:100CA00081E0809349010E944B010E94A7029CE4CD
:100CB000E92E91E0F92E26E0822E670185E0982E3C
:100CC000D6018D916D01813031F423E048E0682D2B
:100CD000892D0E94C202B9E09B0EEDE49E12F0CF76
:100CE000F4E08F0E08E0E00EF11C26E18212E5CF61
:100CF00022E040E16BE2809170010E94C20222E09A
:100D000042E060916E0180916F010E94C2024091A9
:100D100047015091480168E282E00E94C50180913C
:100D20004B0190914901892B09F47BC082E1E0EFEE
:100D3000F0E0DE01119601900D928A95E1F729E02D
:100D4000AE014F5F5F4F62E18CE037CE0196843099
:100D5000910509F0A7CEC5CE8091450110924501BD
:100D6000882309F4E4CE24E030E030933A01209364
:100D700039010E94EB02DBCE85E00E94000188234E
:100D800029F080914A018E2580934A0180914A0181
:100D90008111CDCE80913801882319F08150809344
:100DA00038018091460190E09C0135952795359555
:100DB000279503E0959587950A95E1F7AC01422BBD
:100DC00040FD03C010923801B2CE4091380141116C
:100DD000AECE817020FFB4C0811107C08091700138
:100DE000833018F081508093700132E030933801E5
:100DF0009ECE81350CF4C4CE81E580936F018FEFD8
:100E0000BDCE4F5F5F4F4830510509F0F9CE0196D6
:100E1000349608E0E00EF11C8430910509F0E9CE2B
:100E20002CCF80914A01882309F4C9CD8AE0E2E001
:100E3000F1E0DE01119601900D928A95E1F725E02F
:100E4000AE014F5F5F4F62E18BE1B7CD049709F0D0
:100E5000BCCC80E00E940001882339F080913B01E6
:100E6000882319F0815080933B0181E00E940001AA
:100E7000882339F080913B01811103C081E0809388
:100E80003B0184E00E940001F0903B01882371F057
:100E9000F1104CC00E9420011092710130923A0171
:100EA000209239010E94EB0210E01CA20E944B012B
:100EB0000E94A7028CE0ECE0F1E0DE0111960190C7
:100EC0000D928A95E1F726E0AE014F5F5F4F69E032
:100ED0008AE10E946E028EE0E8E1F1E0DE01119607
:100EE00001900D928A95E1F727E0AE014F5F5F4FC9
:100EF00061E186E10E946E028AE0E6E2F1E0DE0155
:100F0000119601900D928A95E1F725E0AE014F5FB1
:100F10005F4F6FE18AE10E946E0244E550E06DE0B0
:100F2000F1106FE180E10E94360249CD31E0F31209
:100F3000BDCF10923A01109239010E94EB02B6CF58
:100F4000882309F452CF80917001823408F04DCF8C
:100F50008F5F49CFBB274A3031F4992322F4BDE299
:100F6000909581959F4F0C94B607BB27FB015527A1
:100F7000AA27880F991FAA1FA41710F0A41B8395F6
:100F80005051B9F7A05DAA3308F0A95DA19300976D
:100F900079F7B111B1931192CB010C94CF07DC0119
:100FA000FC01672F71917723E1F7329704C07C91A0
:100FB0006D9370836291AE17BF07C8F30895F894DC
:020FC000FFCF61
:100FC20008011C013501E0002B0126011201E50098
:100FD2000D0135011C013A0135011C010D01B3005F
:100FE200B800C700D1009F00DB009000BD00DB000D
:100FF200D100B300B800A400B300BD00DB00900034
:10100200DB009000BD00DB00D100B3009500AE0014
:101012009A009F00DB00CC00B300A900DB00D100E6
:10102200B300B8009000C700BD009000D100DB0003
:10103200D600BD00C700C700A400AE00C700D100A3
:10104200C200DB00BD0003010D0126011C012B01C2
:101052003A01350130012B019000260121012B01BB
:101062001C01FE003501120103012B0103012B01BA
:101072003A011201F9001C01170112013A0135016E
:10108200F400EF00260103013501EA00F9001C011A
:08109200010204081020000017
:00000001FF
