:100000000C942A000C9447000C9447000C94470071
:100010000C9447000C9447000C9447000C94470044
:100020000C9447000C9447000C9447000C94470034
:100030000C9447000C9447000C9447000C94470024
:100040000C9447000C9447000C9447000C94470014
:100050000C94470011241FBECFE5D4E0DEBFCDBF16
:1000600010E0A0E6B0E0EAEFF7E002C005900D92E4
:10007000A83EB107D9F723E0A8EEB0E001C01D9279
:10008000A131B207E1F70E9417010C94FB030C9415
:10009000000089B380958F718093EE001092ED007F
:1000A0001092EC00E9EEF0E01082118212820895C5
:1000B00082E28093180189E28093170183E28093A2
:1000C000160181E0809315018FEF80931401109247
:1000D000F3001092F2001092F1001092F0001092D2
:1000E000EF00E4EFF0E024E131E081E08083818300
:1000F00082838383848385838683878338962E17C0
:100100003F07A1F708958435C8F46033B8F4962FFB
:10011000969596959695E82FF0E084E5989FE00DEA
:10012000F11D1124E75EFE4F677021E030E001C051
:10013000220F6A95EAF78081822B80830895CF92FF
:10014000DF92EF92FF920F931F93CF93DF93C82F0D
:100150007B01D5E0D80FF701C1907F0110E000E0EE
:10016000D12CC601002E02C0959587950A94E2F71E
:1001700080FF05C069E1600F8C2F0E9483000F5F34
:100180001F4F0730110569F7CF5FCD13E4CFDF9123
:10019000CF911F910F91FF90EF90DF90CF90089536
:1001A000CF92DF92EF92FF921F93CF93DF93D62FE0
:1001B000C82F840F9927991F7C01862F820F9927BA
:1001C000991F6C01CE151F0494F0DF91CF911F9100
:1001D000FF90EF90DF90CF900895612F8C2F0E94B9
:1001E00083001F5F1C151D04C4F3CF5FEBCF1D2FD1
:1001F000F9CF6623A9F0C19AC49898E087FF12C08E
:10020000C59AC79A22E02A95F1F700C0C79822E064
:100210002A95F1F700C0880F915081F7C49A08958C
:10022000C198EACFC598EDCF60E00C94F900CDB746
:10023000DEB767970FB6F894DEBF0FBECDBF87B3AA
:10024000836B87BBC49AC798C09AC0988FE19EE41D
:100250000197F1F700C00000C09A81E20E941401EA
:100260008FEB0E94140184E00E94140184E10E943B
:10027000140180E20E9414018CE00E941401E9E163
:10028000F1E088EF91E0DF019C011D9221503040A8
:10029000E1F78AB3807E8ABB8BB38F618BBB0E94F0
:1002A00049000E945800F12CE12C11E08091F300EC
:1002B0009091F100892B09F061C2E82E0AE039B370
:1002C00030953F715091EC008091EE009091ED00DF
:1002D000ACE7B0E0E9EEF0E02D91622F6323DD247E
:1002E000D394611101C0D12C71E0422F482309F44D
:1002F00070E0D71275C11082319640E0AF37B40775
:1003000059F78093EE009093ED005093EC0020910C
:10031000F3003091F100232B09F482C1F11074C174
:10032000FF24F3948111F12CAFE1BEE41197F1F7B2
:1003300000C00000015009F0C2CF8091F3009091FD
:10034000F100892B9091F200892B09F0A9C09091BE
:1003500016018091170120911501820F80931701DA
:1003600020911401920F9093160182300CF095C1E8
:100370001093170110931501923024F41093160175
:1003800010931401B0911601BB8B20911701022E1E
:10039000000C330B8B2F8952833090F4409118015D
:1003A000842F90E0B9016E5F7F4F4617170609F062
:1003B0003CF44096821793071CF08FEF8093140152
:1003C0002901E2E04E0E511C64EF70E05B01E6E0B3
:1003D000F0E090E080E0DB888D2CDD0C9908A40132
:1003E0004E5F5F4F5D8B4C8B150150E040E03F014D
:1003F000A3E06A0E711CD101DD901D01B1E0DB129A
:1004000056C1A9E0DA2ED49ED001D59EB00D11249C
:10041000BF8BAE8B6D01A5E0CA0ED11C4C145D04E0
:100420000CF445C1AE89BF891D96A217B3070CF421
:100430003EC1AC89BD89AE17BF070CF438C1681442
:1004400079040CF434C1E3E0880F991FEA95E1F7D1
:100450008C509F4F480F591FFA0110828091EF0076
:100460009091F00001969093F0008093EF008091BE
:100470001401819580931401BB89BD3214F010934F
:10048000F300FB0188E09191913051F08150D9F750
:10049000685F7F4FE1E064317E0799F71093F100C8
:1004A00088EF91E0A9E1B1E0FC011D923197E9F7F5
:1004B000D12C60E08D2D0E9483006FE28D2D0E9473
:1004C0008300D394F4E5DF12F4CFD12C6D2D80E0BE
:1004D0000E9483006D2D83E50E948300D39420E366
:1004E000D212F4CF64EFC62E60E0D62E76E0872ECF
:1004F000560155E0952ED5018D915D01813031F485
:1005000023E048E0682D892D0E94D000B9E09B0EC1
:10051000EDE49E12F0CFF4E08F0E28E0C20ED11C65
:1005200036E18312E5CF22E040E16BE280911801D1
:100530000E94D00022E042E06091160180911701F4
:100540000E94D0004AE0BE016F5F7F4F8091EF00B4
:100550009091F0000E94C60337E0432E45E0242E20
:10056000E1E0F0E0EC0FFD1FE00FF11D8081811153
:10057000AEC08091F3009091F100892B09F4D7C0AF
:1005800082E1E0E6F0E0DE01119601900D928A959D
:10059000E1F7AE014F5F5F4F6A010CE0D6016D914C
:1005A0007D916D01802F0E949F000A5F0234B1F798
:1005B00080E40E94140180E80E94140189E1C82EA1
:1005C00081E0D82E91E1A92E93E0B92E61E0F601E9
:1005D00081916F010E94F900AC14BD04B9F766CE99
:1005E0004081423040F0108261110BC0422F409593
:1005F0008423522B81CE4F5F4083423009F07CCE62
:10060000F2CF822B922B78CE1092ED00992309F431
:100610008BCE0E9458000E944900F12CE12C84CE20
:10062000292F2F7E2093ED0094FF06C09091F200B9
:1006300051E095279093F2009091F200911174CEC1
:100640009091E800992319F091509093E80090E080
:100650009C01359527953595279533E09595879598
:100660003A95E1F7AC01422B40FD03C01092E8003F
:100670005BCE4091E800411157CE817020FF74C0DD
:10068000811107C080911801833018F08150809348
:10069000180182E08093E80047CE81350CF46CCEDF
:1006A00081E5809317018FEF8093150165CE4F5F31
:1006B0005F4F4830510509F09ECE0196349648E0D0
:1006C000A40EB11C8430910509F08ECED5CE805396
:1006D0008A3020F00F5F46E0440E42CF829DC00179
:1006E0001124DC01AA54BF4F6D012BEF322E340CC4
:1006F000F601A1906F01912C812CB12CC501082C21
:1007000002C0959587950A94E2F780FF05C068E2DC
:10071000680D832D0E948300FFEF8F1A9F0A27E048
:100720008216910459F733944310E2CFD3CF8091CE
:10073000F200882309F43CCF8AE0E2E7F0E0DE0132
:10074000119601900D928A95E1F7FE0131966F01A5
:100750000BE1D6016D917D916D01802F0E949F006C
:100760000A5F0933B1F724CF882309F492CF80912F
:100770001801823408F08DCF8F5F89CF8E2DE11064
:100780009CCD0E944900F12C81E097CDBB274A30D7
:1007900031F4992322F4BDE2909581959F4F0C94FA
:1007A000D203BB27FB015527AA27880F991FAA1F31
:1007B000A41710F0A41B83955051B9F7A05DAA337C
:1007C00008F0A95DA193009779F7B111B193119247
:1007D000CB010C94EB03DC01FC01672F71917723B3
:1007E000E1F7329704C07C916D9370836291AE17EC
:0A07F000BF07C8F30895F894FFCF87
:1007FA00B100AC00A700A2008E009D009800A200E4
:10080A0093008900AC0084007F00A200040810262F
:10081A00494949323F4040403F7F090909060000E3
:10082A000000007F091929461F2040201F3E414130
:10083A00413E7F494949417F0204027F7E111111DD
:10084A007E3E4149497A3E5149453E00427F400039
:10085A0042615149462141454B311814127F1027F4
:10086A00454545393C4A494930017109050336492C
:08087A00494936064949291ECF
:00000001FF
