:100000000C949D000C94BA000C94BA000C94BA00A5
:100010000C94BA000C94BA000C94BA000C94BA0078
:100020000C94BA000C94BA000C94BA000C94BA0068
:100030000C94BA000C94BA000C94BA000C94BA0058
:100040000C94BA000C94BA000C94BA000C94BA0048
:100050000C94BA00003E1C08003E5149453E004247
:100060007F400042615149462141454B31181412ED
:100070007F1027454545393C4A49493001710905FA
:10008000033649494936064949291E000060600087
:1000900000000000007C041804783C4040207C04F0
:1000A0003F44402048545454247C080404087C14E1
:1000B00014140838444444387C0404047800417F14
:1000C000400000447D40003854545418384444449F
:1000D0007F38444444287F4444443820545454785E
:1000E0007F081422417F404040407F4141221C7FD5
:1000F0000204087F41417F41417F090909062649E1
:100100004949327F494949363E414141223F4040B9
:10011000403F2040413F017F091929461F204020D0
:100120001F3E4141413E7F494949417F0204027FD0
:100130007E1111117E3E4149497A11241FBECFE53F
:10014000D4E0DEBFCDBF11E0A0E6B0E0E8EFF1E122
:1001500002C005900D92A433B107D9F723E0A4E3C0
:10016000B1E001C01D92A53CB207E1F70E94F8037F
:100170000C94FA080C9400000F931F93CF9329B3AB
:1001800020952F738091400140913E0150913F0195
:10019000AEE2B1E0E8E3F1E004E311E09D91692F04
:1001A0006223C1E009F4C0E071E0382F392309F47B
:1001B00070E0C7130FC0108231960A171B0771F742
:1001C0008093400150933F0140933E01CF911F9196
:1001D0000F9108953081323040F0108261110AC0D1
:1001E000392F30958323492BE7CF3F5F308332305F
:1001F00019F7F3CF892B592BDFCF21E030E001C075
:10020000220F8A95EAF780913F01922F90959823CB
:1002100090933F01982F922381E009F480E00895A4
:1002200084EA86BF06B607FEFDCF089583B984E849
:1002300086BF06B607FEFDCF0895EDECF1E088EF2E
:1002400091E0DF019C011D9221503040E1F70895BB
:10025000CF93DF93EC010E94100180EA0E94160107
:100260008D2F0E9416018C2F0E9416010E941001F2
:1002700081EA0E94160184E886BF06B607FEFDCF1C
:1002800083B194E996BF9AE19A95F1F700C0DF91A6
:10029000CF910895EF92FF921F93CF93DF937C014C
:1002A000C0E0D1E0CE010E942801182FCE010196B6
:1002B0000E942801982F812FF701819391937F014C
:1002C0002296C830F1E0DF0769F7DF91CF911F91E7
:1002D000FF90EF9008958435D8F46033C8F4962FDA
:1002E000969596959695E82FF0E084E5989FE00D19
:1002F000F11D1124E353FE4F2081677081E090E0EF
:1003000001C0880F6A95EAF7442319F0822B808395
:10031000089580958223FBCFCF93C0E041E060E059
:100320008C2F0E946B0141E06FE28C2F0E946B01C9
:10033000CF5FC43599F7C0E041E06C2F80E00E94A8
:100340006B0141E06C2F83E50E946B01CF5FC033EE
:1003500099F7CF910895BF92CF92DF92EF92FF92DB
:100360000F931F93CF93DF93C82FD62F8A0185E079
:10037000B82EBC0EF801C490F12CE12CD12CC60192
:100380000E2C02C0959587950A94E2F780FF06C06F
:1003900041E06D2F6E0D8C2F0E946B01FFEFEF1A65
:1003A000FF0A87E0E816F10451F70F5F1F4FCF5F98
:1003B000CB11E0CFDF91CF911F910F91FF90EF9084
:1003C000DF90CF90BF900895EF92FF920F931F930D
:1003D000CF93DF93C82FE62EF22E8A01D0E0F801EA
:1003E000419151918F016E2D8C2F0E94AB01DF5FE7
:1003F000CA5FFD12F4CFDF91CF911F910F91FF9053
:10040000EF9008955F926F927F928F929F92AF923A
:10041000BF92CF92DF92EF92FF920F931F93CF93F1
:10042000DF9300D000D000D0CDB7DEB7B82EA62E17
:10043000CA014AE0BE016F5F7F4F0E946208E12C53
:1004400085E0782EE1E0F0E0EC0FFD1FEE0DF11DF0
:100450000081011116C026960FB6F894DEBF0FBEBC
:10046000CDBFDF91CF911F910F91FF90EF90DF9063
:10047000CF90BF90AF909F908F907F906F905F9044
:10048000089500530A3070F5FE2CFF0CFE0CFF0C93
:10049000FB0C079D80011124075A1F4F612CF801A6
:1004A0008490D12CC12C912C562C5F0CC4010C2CA7
:1004B00002C0959587950A94E2F780FF06C041E057
:1004C0006A2D6C0D852D0E946B01FFEFCF1ADF0A9C
:1004D00087E0C816D10451F763940F5F1F4FE5E022
:1004E0006E12DDCFE394AECFCE9B02C0C69A0895C4
:1004F000C69808951F93CF93DF93C82F142FD52F3D
:10050000462F50E0682F83E00E9402024BE850E043
:100510006C2F89E00E94AB01412F5D2F6C2F84E18D
:10052000DF91CF911F910C9402020F931F93CF93F1
:10053000DF93C82F162F04E0080FD0E0612F6D0F56
:1005400041E08C2F0E946B01DF5FD430B9F7CF5FA1
:10055000C013F3CFDF91CF911F910F910895BF92F8
:10056000CF92DF92EF92FF920F931F93CF93DF937F
:10057000D0914901B0904A0101EF13E025E1E22E4C
:10058000F12C3CE0C32ED12C01501109A9F401EF4C
:1005900013E085E1E82EF12C9CE0C92ED12C01500E
:1005A000110979F5DF91CF911F910F91FF90EF9095
:1005B000DF90CF90BF9008950E945208B7010E942B
:1005C000C207C82F0E945208B6010E94C207DC175A
:1005D00061F020914B01ECE4F1E090E0921308C04F
:1005E000C093490180934A01DDCFB812F2CFCCCF3E
:1005F0003081C31303C03181831731F29F5F32967C
:10060000EDCF0E945208B7010E94C207C82F0E9476
:100610005208B6010E94C20720914B01ECE4F1E0C0
:1006200090E09217E9F23081C31304C0318183173F
:1006300009F4B5CF9F5F3296F4CF83E080934B01EE
:100640001092420110924101109244011092430114
:100650008AE080934C0186E080934D0199E090936D
:100660004E0180934F0198E0909350018093510187
:1006700083E090E090934801809347019093460176
:10068000809345018FEF8093490180934A0192B78F
:1006900089B389272091C5033091C6038227932708
:1006A000582F5695492F479544274795352F342B7A
:1006B000592F5695482F479544274795252F242B8A
:1006C0002817390751F0822793279093C603809308
:1006D000C5030E9457080C94AF0285EA95EAF5CF4E
:1006E00089B380958F738093400110923F011092DF
:1006F0003E01E8E3F1E0108211821282138214823B
:10070000158208951F93CF93DF93D82F192FC62FEB
:100710000E94100180EA0E941601812F0E9416019A
:100720008D2F0E9416018C2F0E94160184E986BF2E
:100730008AE18A95F1F700C08FE19EE40197F1F715
:1007400000C00000DF91CF911F910895FF920F9399
:100750001F93CF93DF93EC0100E011E06881F980F3
:100760002296C8010E9482036F2DC80101960E9443
:1007700082030E5F1F4F083081E0180779F7DF9181
:10078000CF911F910F91FF9008956623A9F0C19A10
:10079000C49898E087FF12C0C59AC79A22E02A95AC
:1007A000F1F700C0C79822E02A95F1F700C0880F42
:1007B000915081F7C49A0895C198EACFC598EDCFBA
:1007C00060E00C94C503CF93DF9380E40E94E003C4
:1007D00080E80E94E003CDECD1E061E089910E94C5
:1007E000C50383E0C53CD807C1F7DF91CF910895D9
:1007F000CDB7DEB7A0970FB6F894DEBF0FBECDBF62
:1008000087B3836B87BBC49AC798C09AC0988FE19F
:100810009EE40197F1F700C00000C09A81E20E94B7
:10082000E0038FEB0E94E00384E00E94E00384E198
:100830000E94E00380E20E94E0038CE00E94E0035B
:10084000EDECF1E088EF91E0DF019C011D92215079
:100850003040E1F78AB3807C8ABB8BB38F638BBB5C
:1008600083E083BF11B888E480B984E086BF90E05C
:1008700080E00E942801182F81E090E00E9428016A
:10088000123511F48035C1F062E590E080E00E94FD
:10089000820360E581E090E00E94820361E082E0F3
:1008A00090E00E948203CE01019628E0DC011D92B7
:1008B0002A95E9F70E94A6030E947003D698DE9855
:1008C000BE9AC6981092CC01A12C512C03E010E0E6
:1008D00072E0E72EF12CCC24C394D12CF4E06F2EDF
:1008E000712CA3E08A2EA1E09A2E0E9474020E942D
:1008F000BC008091340190913501009709F066C0E9
:1009000080E00E94FD00882339F080913701882320
:1009100019F081508093370181E00E94FD00882307
:1009200039F080913701811103C081E08093370154
:1009300084E00E94FD00B0903701882349F0B1E0C7
:10094000BB123DC0D0923501C09234010E947003A9
:100950000E941D010E948C018AE0E4E6F0E0DE01C5
:10096000119601900D928A95E1F725E0AE014F5F57
:100970005F4F6EE08AE10E94E4018CE0EEE6F0E079
:10098000DE01119601900D928A95E1F726E0AE0105
:100990004F5F5F4F6BE188E10E94E40144E550E066
:1009A0006EE0B1106BE180E10E94AB010E94E303B5
:1009B000EFE1FEE43197F1F700C0000096CFB110EF
:1009C000C7CFF0923501E0923401C0CF813091055C
:1009D00009F071C085E00E94FD00882331F010927B
:1009E0003501109234010E9470030E941D010E9483
:1009F0008C019A82898221E0AE014F5F5F4F67E2EE
:100A00008BE40E94E40184E1EAE7F0E0DE01119664
:100A100001900D928A95E1F72AE0AE014F5F5F4F9A
:100A200064E086E00E94E40188E1EEE8F0E0DE01A7
:100A3000119601900D928A95E1F72CE0AE014F5F7F
:100A40005F4F6CE086E00E94E40186E1E6EAF0E0B8
:100A5000DE01119601900D928A95E1F72BE0AE012F
:100A60004F5F5F4F64E186E00E94E40188E1ECEBB8
:100A7000F0E0DE01119601900D928A95E1F72CE0ED
:100A8000AE014F5F5F4F6CE186E00E94E40180E1C0
:100A9000E4EDF0E0DE01119601900D928A95E1F708
:100AA00028E0AE014F5F5F4F64E286E00E94E40100
:100AB0000E94E3031ACF8230910509F04EC084E012
:100AC0000E94FD00882309F442C00E941D03109279
:100AD000CC0110933501009334010E947003CE01C4
:100AE00049960E944A010E941D010E948C018AE0E1
:100AF000E4EEF0E0DE01119601900D928A95E1F7A7
:100B000025E0AE014F5F5F4F61E08DE10E94E4019F
:100B1000498D5A8D61E08CE00E947A024B8D5C8D8C
:100B200062E084E10E947A024D8D5E8D63E08CE18B
:100B30000E947A024F8D58A164E084E20E947A02FA
:100B40000E94E3038FE19EE40197F1F735CF85E042
:100B50000E94FD008111B9CFC2CF8330910509F009
:100B600095C1809144018823C1F1511036C0809114
:100B7000CC0181112FC0A0904101B0904201CE0163
:100B800001960E944A01FE013196DF0190E080E06B
:100B9000482F2D913D912A153B0508F08EC023E08A
:100BA00005C066817781718760872150329742172F
:100BB000C0F3880F991FE1E0F0E0EC0FFD1FE80F94
:100BC000F91FB182A082CE0101960E94A60381E0A6
:100BD0008093CC010E947003A12C5090440152E1FB
:100BE000B52E442443940E9474020E94BC0080915C
:100BF0004401882309F475C0A11065C0AA24A394F8
:100C0000809140018111A12CAFE1BEE41197F1F771
:100C100000C00000BA94B110E6CF20914401809149
:100C20004301282BD1F44091450150914601509346
:100C300048014093470190914C0180914D01423011
:100C4000510509F4C4C008F08FC0452B09F0BAC0A3
:100C50008111B6C081E0809344010E941D010E9471
:100C60008C0160914A01660F660F80914901880FDF
:100C7000880F0E94950280914B01B81608F4CBC0F2
:100C8000409141015091420162E082E00E940202E3
:100C900080914401882309F4E4C082E1EEEEF0E0A3
:100CA000DE01119601900D928A95E1F729E0AE01DF
:100CB0004F5F5F4F62E18CE0F9CE01968430910581
:100CC00009F066CF84CF80913F0110923F018823C5
:100CD00009F49ACF70923501609234010E9470033A
:100CE00093CF85E00E94FD00882329F08091430185
:100CF0008425809343018091400180FF0CC02091A6
:100D00004701309148012130310529F01092460108
:100D10001092450179CF81FF0BC02091470130919E
:100D20004801232B29F0D0924601C09245016CCF97
:100D300082FF0CC0209147013091480123303105DA
:100D400029F0F0924601E09245015ECF83FF5CCF2F
:100D50008091470190914801029709F455CF109373
:100D600046010093450150CF43305105A9F16091F0
:100D70004B01ECE4F1E0261334C0262F30E0422F83
:100D80001216CCF190934C0180934D0120914901B2
:100D9000921363CF90914A0189135FCF6F3320F490
:100DA00081E0860F80934B01809141019091420137
:100DB000019690934201809341010E94AF024DCF72
:100DC0008150D5CF8B3008F045CF8F5FD0CF99239E
:100DD00009F440CF9150CBCF943108F03BCF9F5FC7
:100DE000C6CF3081391304C03181381709F432CFAE
:100DF0002F5F3296C0CF40345CF4F901EE0FFF1F35
:100E0000E45BFE4FDF0112974D915C91518340836B
:100E100021503109B4CFB11015C040904D01440CA0
:100E2000440C30904C01330C330C642D832D0E9404
:100E3000950261E0640D40E081E0830D0E946B014A
:100E4000B39419CFEB2DF0E0EE0FFF1FE45BFE4FE4
:100E50006181660F660F8081880F880F0E9495025E
:100E6000EFCF80914301882309F422CE8AE0E0E0AD
:100E7000F1E0DE01119601900D928A95E1F725E0EF
:100E8000AE014F5F5F4F62E18BE110CE049709F036
:100E90002CCD80E00E94FD00882339F0809136013E
:100EA000882319F081508093360181E00E94FD0073
:100EB000882339F080913601811103C081E080934D
:100EC000360184E00E94FD00882381F08091360184
:100ED00081114EC00E941D031092CC011093350168
:100EE000009334010E947003A12C512C0E941D011B
:100EF0000E948C018CE0EAE0F1E0DE0111960190A5
:100F00000D928A95E1F726E0AE014F5F5F4F69E0F1
:100F10008AE10E94E4018EE0E6E1F1E0DE01119653
:100F200001900D928A95E1F727E0AE014F5F5F4F88
:100F300061E186E10E94E4018AE0E4E2F1E0DE01A1
:100F4000119601900D928A95E1F725E0AE014F5F71
:100F50005F4F6FE18AE10E94E4018091360144E530
:100F600050E06DE081116FE180E10E94AB01A0CD06
:100F7000813009F0BBCF10923501109234010E94EC
:100F80007003B4CF97FB072E16F4009407D077FDBB
:100F900009D00E94D60707FC05D03EF490958195B4
:100FA0009F4F0895709561957F4F0895AA1BBB1BB5
:100FB00051E107C0AA1FBB1FA617B70710F0A61B59
:100FC000B70B881F991F5A95A9F780959095BC017A
:100FD000CD010895CF92DF92EF92FF92CF93DF93EE
:100FE000CDB7DEB72A970FB6F894DEBF0FBECDBFE0
:100FF00089879A87A985BA852D913D914D915C91FC
:1010000029833A834B835C83232B242B252B41F4A8
:1010100024E239ED4BE557E029833A834B835C8327
:1010200069817A818B819C812DE133EF41E050E031
:101030000E94970869017A01A7EAB1E49B01AC011B
:101040000E94B60869837A838B839C83ACEEB4EFED
:10105000A70196010E94C4089B01AC0189819A8175
:10106000AB81BC81820F931FA41FB51FB7FF03C0C4
:101070000197A109B048E985FA8580839183A2830D
:10108000B3839F772A960FB6F894DEBF0FBECDBF0D
:10109000DF91CF91FF90EF90DF90CF9008950E9465
:1010A000EA07089580E690E00E94EA070895B0E01C
:1010B000A0E08093600090936100A0936200B093E1
:1010C00063000895BB274A3031F4992322F4BDE22E
:1010D000909581959F4F0C946E08BB27FB01552777
:1010E000AA27880F991FAA1FA41710F0A41B839585
:1010F0005051B9F7A05DAA3308F0A95DA1930097FC
:1011000079F7B111B1931192CB010C948708DC01EE
:10111000FC01672F71917723E1F7329704C07C912E
:101120006D9370836291AE17BF07C8F30895052EC3
:1011300097FB1EF400940E94AE0857FD07D00E9452
:10114000C90807FC03D04EF40C94AE0850954095A6
:10115000309521953F4F4F4F5F4F08959095809563
:10116000709561957F4F8F4F9F4F08950E94EB08B8
:10117000A59F900DB49F900DA49F800D911D1124EB
:101180000895B7FF0C94B6080E94B608821B930B13
:101190000895A1E21A2EAA1BBB1BFD010DC0AA1FB8
:1011A000BB1FEE1FFF1FA217B307E407F50720F0D0
:1011B000A21BB30BE40BF50B661F771F881F991F4B
:1011C0001A9469F760957095809590959B01AC0194
:1011D000BD01CF010895A29FB001B39FC001A39F9D
:1011E000700D811D1124911DB29F700D811D112460
:0811F000911D0895F894FFCF52
:1011F80001000000FE00EF003001E00026010801B8
:10120800300117013501300117010801B300B8009A
:10121800C700D1009F00DB009000BD00DB00D100BB
:10122800B300B800A400B300BD00DB009000DB00F1
:101238009000BD00DB00D100B3009500AE009A001D
:101248009F00DB00CC00B300A900DB00D100B30095
:10125800B8009000C700BD009000D100DB00D600A8
:10126800BD00C700C700A400AE00C700D100C2007F
:10127800DB00BD00FE000801210117012601350130
:1012880030012B012601900021011C0126011701C4
:10129800F90030010D01FE002601FE00260135018E
:1012A8000D01F400170112010D0135013001EF00A5
:1012B800EA002101FE003001E500F40017010102F7
:0412C80004081020E6
:00000001FF
