:100000000C949B000C94B8000C94B8000C94B800AD
:100010000C94B8000C94B8000C94B8000C94B80080
:100020000C94B8000C94B8000C94B8000C94B80070
:100030000C94B8000C94B8000C94B8000C94B80060
:100040000C94B8000C94B8000C94B8000C94B80050
:100050000C94B800003E1C08003E5149453E004249
:100060007F400042615149462141454B31181412ED
:100070007F1027454545393C4A49493001710905FA
:10008000033649494936064949291E000060600087
:1000900000000000007C041804783C4040207C04F0
:1000A0003F44402048545454247C080404087C14E1
:1000B00014140838444444387C0404047800417F14
:1000C000400000447D40003854545418384444449F
:1000D0007F38444444287F4444443820545454785E
:1000E0007F404040407F4141221C7F0204087F4105
:1000F000417F41417F0909090626494949327F4923
:100100004949363E414141223F4040403F20404125
:100110003F017F091929461F2040201F3E414141D0
:100120003E7F494949417F0204027F7E1111117EC1
:100130003E4149497A0011241FBECFE5D4E0DEBF1D
:10014000CDBF11E0A0E6B0E0E4EFF1E102C0059020
:100150000D92A433B107D9F723E0A4E3B1E001C0C5
:100160001D92A53CB207E1F70E94F6030C94F80833
:100170000C9400000F931F93CF9329B320952F73F6
:100180008091400140913E0150913F01AEE2B1E0CB
:10019000E8E3F1E004E311E09D91692F6223C1E0FF
:1001A00009F4C0E071E0382F392309F470E0C71377
:1001B0000FC0108231960A171B0771F78093400118
:1001C00050933F0140933E01CF911F910F910895AD
:1001D0003081323040F0108261110AC0392F3095E1
:1001E0008323492BE7CF3F5F3083323019F7F3CFBA
:1001F000892B592BDFCF21E030E001C0220F8A95F7
:10020000EAF780913F01922F9095982390933F01B8
:10021000982F922381E009F480E0089584EA86BF54
:1002200006B607FEFDCF089583B984E886BF06B6FB
:1002300007FEFDCF0895EDECF1E088EF91E0DF01DE
:100240009C011D9221503040E1F70895CF93DF9338
:10025000EC010E940E0180EA0E9414018D2F0E9481
:1002600014018C2F0E9414010E940E0181EA0E9449
:10027000140184E886BF06B607FEFDCF83B194E97A
:1002800096BF9AE19A95F1F700C0DF91CF9108955A
:10029000EF92FF921F93CF93DF937C01C0E0D1E0F8
:1002A000CE010E942601182FCE0101960E94260140
:1002B000982F812FF701819391937F012296C83067
:1002C000F1E0DF0769F7DF91CF911F91FF90EF9089
:1002D00008958435D8F46033C8F4962F9695969592
:1002E0009695E82FF0E084E5989FE00DF11D11242C
:1002F000E353FE4F2081677081E090E001C0880FDA
:100300006A95EAF7442319F0822B8083089580953B
:100310008223FBCFCF93C0E041E060E08C2F0E94AE
:10032000690141E06FE28C2F0E946901CF5FC43503
:1003300099F7C0E041E06C2F80E00E94690141E044
:100340006C2F83E50E946901CF5FC03399F7CF918D
:100350000895BF92CF92DF92EF92FF920F931F9377
:10036000CF93DF93C82FD62F8A0185E0B82EBC0E1D
:10037000F801C490F12CE12CD12CC6010E2C02C046
:10038000959587950A94E2F780FF06C041E06D2FAE
:100390006E0D8C2F0E946901FFEFEF1AFF0A87E0B4
:1003A000E816F10451F70F5F1F4FCF5FCB11E0CF7D
:1003B000DF91CF911F910F91FF90EF90DF90CF9041
:1003C000BF900895EF92FF920F931F93CF93DF9307
:1003D000C82FE62EF22E8A01D0E0F801419151910A
:1003E0008F016E2D8C2F0E94A901DF5FCA5FFD1265
:1003F000F4CFDF91CF911F910F91FF90EF9008956F
:100400005F926F927F928F929F92AF92BF92CF92A4
:10041000DF92EF92FF920F931F93CF93DF9300D061
:1004200000D000D0CDB7DEB7B82EA62ECA014AE064
:10043000BE016F5F7F4F0E946008E12C85E0782E3F
:10044000E1E0F0E0EC0FFD1FEE0DF11D0081011168
:1004500016C026960FB6F894DEBF0FBECDBFDF9153
:10046000CF911F910F91FF90EF90DF90CF90BF90B1
:10047000AF909F908F907F906F905F900895005302
:100480000A3070F5FE2CFF0CFE0CFF0CFB0C079DD8
:1004900080011124075A1F4F612CF8018490D12C40
:1004A000C12C912C562C5F0CC4010C2C02C09595CC
:1004B00087950A94E2F780FF06C041E06A2D6C0D33
:1004C000852D0E946901FFEFCF1ADF0A87E0C81669
:1004D000D10451F763940F5F1F4FE5E06E12DDCF3B
:1004E000E394AECF869B02C0C69A0895C69808953D
:1004F0001F93CF93DF93C82F142FD52F462F50E093
:10050000682F83E00E9400024BE850E06C2F89E0E6
:100510000E94A901412F5D2F6C2F84E1DF91CF91C3
:100520001F910C9400020F931F93CF93DF93C82F5A
:10053000162F04E0080FD0E0612F6D0F41E08C2FE3
:100540000E946901DF5FD430B9F7CF5FC013F3CFEA
:10055000DF91CF911F910F910895BF92CF92DF92BB
:10056000EF92FF920F931F93CF93DF93D0914901A6
:10057000B0904A0101EF13E025E1E22EF12C3CE0BE
:10058000C32ED12C01501109A9F401EF13E085E12C
:10059000E82EF12C9CE0C92ED12C0150110979F5DF
:1005A000DF91CF911F910F91FF90EF90DF90CF904F
:1005B000BF9008950E945008B7010E94C007C82F3D
:1005C0000E945008B6010E94C007DC1761F020911C
:1005D0004B01ECE4F1E090E0921308C0C0934901B4
:1005E00080934A01DDCFB812F2CFCCCF3081C31354
:1005F00003C03181831731F29F5F3296EDCF0E94A5
:100600005008B7010E94C007C82F0E945008B601C9
:100610000E94C00720914B01ECE4F1E090E09217BA
:10062000E9F23081C31304C03181831709F4B5CFD7
:100630009F5F3296F4CF83E080934B01109242018A
:100640001092410110924401109243018AE080937C
:100650004C0186E080934D0199E090934E01809388
:100660004F0198E0909350018093510183E090E016
:1006700090934801809347019093460180934501F0
:100680008FEF8093490180934A0192B789B38927FC
:100690002091C5033091C60382279327582F569582
:1006A000492F479544274795352F342B592F569579
:1006B000482F479544274795252F242B281739077E
:1006C00051F0822793279093C6038093C5030E941D
:1006D00055080C94AD0285EA95EAF5CF89B380956B
:1006E0008F738093400110923F0110923E01E8E326
:1006F000F1E0108211821282138214821582089511
:100700001F93CF93DF93D82F192FC62F0E940E016E
:1007100080EA0E941401812F0E9414018D2F0E94F3
:1007200014018C2F0E94140184E986BF8AE18A9506
:10073000F1F700C08FE19EE40197F1F700C00000DF
:10074000DF91CF911F910895FF920F931F93CF9345
:10075000DF93EC0100E011E06881F9802296C80186
:100760000E9480036F2DC80101960E9480030E5FD6
:100770001F4F083081E0180779F7DF91CF911F9163
:100780000F91FF9008956623A9F0C19AC49898E04C
:1007900087FF12C0C59AC79A22E02A95F1F700C0D8
:1007A000C79822E02A95F1F700C0880F915081F791
:1007B000C49A0895C198EACFC598EDCF60E00C9433
:1007C000C303CF93DF9380E40E94DE0380E80E949E
:1007D000DE03CDECD1E061E089910E94C30383E0A8
:1007E000C53CD807C1F7DF91CF910895CDB7DEB7EB
:1007F000A0970FB6F894DEBF0FBECDBF87B3836B53
:1008000087BBC49AC798C09AC0988FE19EE40197AD
:10081000F1F700C00000C09A81E20E94DE038FEB76
:100820000E94DE0384E00E94DE0384E10E94DE0376
:1008300080E20E94DE038CE00E94DE03EDECF1E03A
:1008400088EF91E0DF019C011D9221503040E1F7DB
:100850008AB3807C8ABB8BB38F638BBB83E083BFFF
:1008600011B888E480B984E086BF90E080E00E94FF
:100870002601182F81E090E00E942601123511F424
:100880008035C1F062E590E080E00E94800360E581
:1008900081E090E00E94800361E082E090E00E94AD
:1008A0008003CE01019628E0DC011D922A95E9F72C
:1008B0000E94A4030E946E038E989698BE9AC698D2
:1008C0001092CC01A12C512C03E010E072E0E72E35
:1008D000F12CCC24C394D12CF4E06F2E712CAEEF0C
:1008E0008A2EA0E09A2E0E9472020E94BA00809185
:1008F000340190913501009709F066C080E00E94B4
:10090000FB00882339F080913701882319F081504A
:100910008093370181E00E94FB00882339F08091A9
:100920003701811103C081E08093370184E00E9488
:10093000FB00B0903701882349F0B1E0BB123DC005
:10094000D0923501C09234010E946E030E941B01B7
:100950000E948A018AE0E4E6F0E0DE01119601904F
:100960000D928A95E1F725E0AE014F5F5F4F6EE093
:100970008AE10E94E2018CE0EEE6F0E0DE011196F1
:1009800001900D928A95E1F726E0AE014F5F5F4F2F
:100990006BE188E10E94E20144E550E06EE0B110B5
:1009A0006BE180E10E94A9010E94E103EFE1FEE416
:1009B0003197F1F700C0000096CFB110C7CFF09289
:1009C0003501E0923401C0CF8130910509F071C04A
:1009D00085E00E94FB00882331F0109235011092CF
:1009E00034010E946E030E941B010E948A019A82B8
:1009F000898221E0AE014F5F5F4F67E28BE40E9486
:100A0000E20184E1EAE7F0E0DE01119601900D9247
:100A10008A95E1F72AE0AE014F5F5F4F64E086E020
:100A20000E94E20188E1EEE8F0E0DE01119601901B
:100A30000D928A95E1F72CE0AE014F5F5F4F6CE0BD
:100A400086E00E94E20186E1E6EAF0E0DE0111962E
:100A500001900D928A95E1F72BE0AE014F5F5F4F59
:100A600064E186E00E94E20188E1ECEBF0E0DE0167
:100A7000119601900D928A95E1F72CE0AE014F5F3F
:100A80005F4F6CE186E00E94E20180E1E4EDF0E07E
:100A9000DE01119601900D928A95E1F728E0AE01F2
:100AA0004F5F5F4F64E286E00E94E2010E94E10333
:100AB0001ACF8230910509F04EC084E00E94FB00FD
:100AC000882309F442C00E941B031092CC011093AA
:100AD0003501009334010E946E03CE0149960E94B5
:100AE00048010E941B010E948A018AE0E4EEF0E0C6
:100AF000DE01119601900D928A95E1F725E0AE0195
:100B00004F5F5F4F61E08DE10E94E201498D5A8D98
:100B100061E08CE00E9478024B8D5C8D62E084E1A4
:100B20000E9478024D8D5E8D63E08CE10E94780218
:100B30004F8D58A164E084E20E9478020E94E10394
:100B40008FE19EE40197F1F735CF85E00E94FB002D
:100B50008111B9CFC2CF8330910509F095C1809141
:100B600044018823C1F1511036C08091CC0181111C
:100B70002FC0A0904101B0904201CE0101960E9489
:100B80004801FE013196DF0190E080E0482F2D9171
:100B90003D912A153B0508F08EC023E005C0668113
:100BA000778171876087215032974217C0F3880F91
:100BB000991FE1E0F0E0EC0FFD1FE80FF91FB18293
:100BC000A082CE0101960E94A40381E08093CC0113
:100BD0000E946E03A12C5090440152E1B52E442492
:100BE00043940E9472020E94BA00809144018823BB
:100BF00009F475C0A11065C0AA24A3948091400196
:100C00008111A12CAFE1BEE41197F1F700C0000003
:100C1000BA94B110E6CF2091440180914301282B72
:100C2000D1F44091450150914601509348014093C1
:100C3000470190914C0180914D014230510509F4DA
:100C4000C4C008F08FC0452B09F0BAC08111B6C0EE
:100C500081E0809344010E941B010E948A016091FF
:100C60004A01660F660F80914901880F880F0E9424
:100C7000930280914B01B81608F4CBC0409141011A
:100C80005091420162E082E00E94000280914401A2
:100C9000882309F4E4C082E1EEEEF0E0DE01119673
:100CA00001900D928A95E1F729E0AE014F5F5F4F09
:100CB00062E18CE0F9CE01968430910509F066CFAF
:100CC00084CF80913F0110923F01882309F49ACF8D
:100CD00070923501609234010E946E0393CF85E0DB
:100CE0000E94FB00882329F0809143018425809392
:100CF00043018091400180FF0CC020914701309159
:100D000048012130310529F0109246011092450129
:100D100079CF81FF0BC02091470130914801232BEF
:100D200029F0D0924601C09245016CCF82FF0CC0E1
:100D300020914701309148012330310529F0F0928C
:100D40004601E09245015ECF83FF5CCF8091470171
:100D500090914801029709F455CF109346010093F2
:100D6000450150CF43305105A9F160914B01ECE4AE
:100D7000F1E0261334C0262F30E0422F1216CCF1BA
:100D800090934C0180934D0120914901921363CFC0
:100D900090914A0189135FCF6F3320F481E0860F71
:100DA00080934B0180914101909142010196909373
:100DB0004201809341010E94AD024DCF8150D5CFB9
:100DC0008B3008F045CF8F5FD0CF992309F440CF07
:100DD0009150CBCF943108F03BCF9F5FC6CF30818D
:100DE000391304C03181381709F432CF2F5F32969E
:100DF000C0CF40345CF4F901EE0FFF1FE45BFE4FFF
:100E0000DF0112974D915C9151834083215031094C
:100E1000B4CFB11015C040904D01440C440C30903B
:100E20004C01330C330C642D832D0E94930261E03E
:100E3000640D40E081E0830D0E946901B39419CFF5
:100E4000EB2DF0E0EE0FFF1FE45BFE4F6181660FBC
:100E5000660F8081880F880F0E949302EFCF8091E8
:100E60004301882309F422CE8AE0E0E0F1E0DE01CC
:100E7000119601900D928A95E1F725E0AE014F5F42
:100E80005F4F62E18BE110CE049709F02CCD80E03A
:100E90000E94FB00882339F080913601882319F0E5
:100EA00081508093360181E00E94FB00882339F055
:100EB00080913601811103C081E08093360184E086
:100EC0000E94FB00882381F08091360181114EC081
:100ED0000E941B031092CC01109335010093340142
:100EE0000E946E03A12C512C0E941B010E948A01BA
:100EF0008CE0EAE0F1E0DE01119601900D928A9516
:100F0000E1F726E0AE014F5F5F4F69E08AE10E94A2
:100F1000E2018EE0E6E1F1E0DE01119601900D9232
:100F20008A95E1F727E0AE014F5F5F4F61E186E10F
:100F30000E94E2018AE0E4E2F1E0DE011196019014
:100F40000D928A95E1F725E0AE014F5F5F4F6FE1AB
:100F50008AE10E94E2018091360144E550E06DE0B3
:100F600081116FE180E10E94A901A0CD813009F0DB
:100F7000BBCF10923501109234010E946E03B4CFA2
:100F800097FB072E16F4009407D077FD09D00E9436
:100F9000D40707FC05D03EF4909581959F4F0895A6
:100FA000709561957F4F0895AA1BBB1B51E107C047
:100FB000AA1FBB1FA617B70710F0A61BB70B881FE9
:100FC000991F5A95A9F780959095BC01CD01089578
:100FD000CF92DF92EF92FF92CF93DF93CDB7DEB740
:100FE0002A970FB6F894DEBF0FBECDBF89879A87C8
:100FF000A985BA852D913D914D915C9129833A83C4
:101000004B835C83232B242B252B41F424E239EDE5
:101010004BE557E029833A834B835C8369817A816E
:101020008B819C812DE133EF41E050E00E949508D7
:1010300069017A01A7EAB1E49B01AC010E94B408FE
:1010400069837A838B839C83ACEEB4EFA70196010E
:101050000E94C2089B01AC0189819A81AB81BC814D
:10106000820F931FA41FB51FB7FF03C00197A109EB
:10107000B048E985FA8580839183A283B3839F7703
:101080002A960FB6F894DEBF0FBECDBFDF91CF9189
:10109000FF90EF90DF90CF9008950E94E8070895A9
:1010A00080E690E00E94E8070895B0E0A0E0809319
:1010B000600090936100A0936200B0936300089574
:1010C000BB274A3031F4992322F4BDE290958195F3
:1010D0009F4F0C946C08BB27FB015527AA27880F4C
:1010E000991FAA1FA41710F0A41B83955051B9F79C
:1010F000A05DAA3308F0A95DA193009779F7B1111B
:10110000B1931192CB010C948508DC01FC01672F8F
:1011100071917723E1F7329704C07C916D937083CE
:101120006291AE17BF07C8F30895052E97FB1EF412
:1011300000940E94AC0857FD07D00E94C70807FC26
:1011400003D04EF40C94AC08509540953095219501
:101150003F4F4F4F5F4F08959095809570956195E3
:101160007F4F8F4F9F4F08950E94E908A59F900DD4
:10117000B49F900DA49F800D911D11240895B7FF79
:101180000C94B4080E94B408821B930B0895A1E24A
:101190001A2EAA1BBB1BFD010DC0AA1FBB1FEE1FF1
:1011A000FF1FA217B307E407F50720F0A21BB30B3C
:1011B000E40BF50B661F771F881F991F1A9469F7B8
:1011C00060957095809590959B01AC01BD01CF0114
:1011D0000895A29FB001B39FC001A39F700D811D10
:1011E0001124911DB29F700D811D1124911D089530
:0411F000F894FFCFA1
:1011F400010000000D01080130012B01120103015F
:101204002B01120130012B0112010301B300B800BC
:10121400C700D1009F00DB009000BD00DB00D100BF
:10122400B300B800A400B300BD00DB009000DB00F5
:101234009000BD00DB00D100B3009500AE009A0021
:101244009F00DB00CC00B300A900DB00D100B30099
:10125400B8009000C700BD009000D100DB00D600AC
:10126400BD00C700C700A400AE00C700D100C20083
:10127400DB00BD00F90003011C0112012101300152
:101284002B012601210190001C01170121011201EB
:10129400F4002B010801F9002101F90021013001BA
:1012A4000801EF0012010D01080130012B01EA00D1
:1012B400E5001C01F9002B01E000EF00120101021E
:0412C40004081020EA
:00000001FF
