:100000000C949B000C94B8000C94B8000C94B800AD
:100010000C94B8000C94B8000C94B8000C94B80080
:100020000C94B8000C94B8000C94B8000C94B80070
:100030000C94B8000C94B8000C94B8000C94B80060
:100040000C94B8000C94B8000C94B8000C94B80050
:100050000C94B800003E1C08003E5149453E004249
:100060007F400042615149462141454B31181412ED
:100070007F1027454545393C4A49493001710905FA
:10008000033649494936064949291E000060600087
:1000900000000000007C041804783C4040207C04F0
:1000A0003F44402048545454247C080404087C14E1
:1000B00014140838444444387C0404047800417F14
:1000C000400000447D40003854545418384444449F
:1000D0007F38444444287F4444443820545454785E
:1000E0007F404040407F4141221C7F0204087F4105
:1000F000417F41417F0909090626494949327F4923
:100100004949363E414141223F4040403F20404125
:100110003F017F091929461F2040201F3E414141D0
:100120003E7F494949417F0204027F7E1111117EC1
:100130003E4149497A0011241FBECFE5D4E0DEBF1D
:10014000CDBF11E0A0E6B0E0EEECFFE002C005900C
:100150000D92A433B107D9F723E0A4E3B1E001C0C5
:100160001D92A43CB207E1F70E945D030C94E507E1
:100170000C9400000F931F93CF9329B320952F73F6
:100180008091400140913E0150913F01AEE2B1E0CB
:10019000E8E3F1E004E311E09D91692F6223C1E0FF
:1001A00009F4C0E071E0382F392309F470E0C71377
:1001B0000FC0108231960A171B0771F78093400118
:1001C00050933F0140933E01CF911F910F910895AD
:1001D0003081323040F0108261110AC0392F3095E1
:1001E0008323492BE7CF3F5F3083323019F7F3CFBA
:1001F000892B592BDFCF21E030E001C0220F8A95F7
:10020000EAF780913F01922F9095982390933F01B8
:10021000982F922381E009F480E00895ECECF1E05E
:1002200088EF91E0DF019C011D9221503040E1F701
:1002300008958435D8F46033C8F4962F9695969532
:100240009695E82FF0E084E5989FE00DF11D1124CC
:10025000E453FE4F2081677081E090E001C0880F79
:100260006A95EAF7442319F0822B808308958095DC
:100270008223FBCFCF93C0E041E060E08C2F0E944F
:10028000190141E06FE28C2F0E941901CF5FC43544
:1002900099F7C0E041E06C2F80E00E94190141E035
:1002A0006C2F83E50E941901CF5FC03399F7CF917E
:1002B0000895BF92CF92DF92EF92FF920F931F9318
:1002C000CF93DF93C82FD62F8A0185E0B82EBC0EBE
:1002D000F801C490F12CE12CD12CC6010E2C02C0E7
:1002E000959587950A94E2F780FF06C041E06D2F4F
:1002F0006E0D8C2F0E941901FFEFEF1AFF0A87E0A5
:10030000E816F10451F70F5F1F4FCF5FCB11E0CF1D
:10031000DF91CF911F910F91FF90EF90DF90CF90E1
:10032000BF900895EF92FF920F931F93CF93DF93A7
:10033000C82FE62EF22E8A01D0E0F80141915191AA
:100340008F016E2D8C2F0E945901DF5FCA5FFD1255
:10035000F4CFDF91CF911F910F91FF90EF9008950F
:100360005F926F927F928F929F92AF92BF92CF9245
:10037000DF92EF92FF920F931F93CF93DF9300D002
:1003800000D000D0CDB7DEB7B82EA62ECA014AE005
:10039000BE016F5F7F4F0E944D07E12C85E0782EF4
:1003A000E1E0F0E0EC0FFD1FEE0DF11D0081011109
:1003B00016C026960FB6F894DEBF0FBECDBFDF91F4
:1003C000CF911F910F91FF90EF90DF90CF90BF9052
:1003D000AF909F908F907F906F905F9008950053A3
:1003E0000A3070F5FE2CFF0CFE0CFF0CFB0C079D79
:1003F00080011124075A1F4F612CF8018490D12CE1
:10040000C12C912C562C5F0CC4010C2C02C095956C
:1004100087950A94E2F780FF06C041E06A2D6C0DD3
:10042000852D0E941901FFEFCF1ADF0A87E0C81659
:10043000D10451F763940F5F1F4FE5E06E12DDCFDB
:10044000E394AECF1F93CF93DF93C82F142FD52FF4
:10045000462F50E0682F83E00E94B0014BE850E047
:100460006C2F89E00E945901412F5D2F6C2F84E190
:10047000DF91CF911F910C94B0010F931F93CF93F5
:10048000DF93C82F162F04E0080FD0E0612F6D0F07
:1004900041E08C2F0E941901DF5FD430B9F7CF5FA4
:1004A000C013F3CFDF91CF911F910F910895BF92A9
:1004B000CF92DF92EF92FF920F931F93CF93DF9330
:1004C000D0914901B0904A0101EF13E025E1E22EFD
:1004D000F12C3CE0C32ED12C01501109A9F401EFFD
:1004E00013E085E1E82EF12C9CE0C92ED12C0150BF
:1004F000110979F5DF91CF911F910F91FF90EF9046
:10050000DF90CF90BF9008950E943D07B7010E94F1
:10051000AD06C82F0E943D07B6010E94AD06DC174C
:1005200061F020914B01ECE4F1E090E0921308C0FF
:10053000C093490180934A01DDCFB812F2CFCCCFEE
:100540003081C31303C03181831731F29F5F32962C
:10055000EDCF0E943D07B7010E94AD06C82F0E9453
:100560003D07B6010E94AD0620914B01ECE4F1E09D
:1005700090E09217E9F23081C31304C031818317F0
:1005800009F4B5CF9F5F3296F4CF83E080934B019F
:1005900010924201109241011092440110924301C5
:1005A0008AE080934C0186E080934D0199E090931E
:1005B0004E0180934F0198E0909350018093510138
:1005C00083E090E090934801809347019093460127
:1005D000809345018FEF8093490180934A0192B740
:1005E00089B389272091C4033091C50382279327BB
:1005F000582F5695492F479544274795352F342B2B
:10060000592F5695482F479544274795252F242B3A
:100610002817390751F0822793279093C5038093B9
:10062000C4030E9442070C94570285EA95EAF5CF6D
:1006300089B380958F738093400110923F0110928F
:100640003E01E8E3F1E010821182128213821482EB
:10065000158208956623A9F0C19AC49898E087FF8F
:1006600012C0C59AC79A22E02A95F1F700C0C79830
:1006700022E02A95F1F700C0880F915081F7C49AC3
:100680000895C198EACFC598EDCF60E00C942A0395
:10069000CF93DF9380E40E94450380E80E944503E6
:1006A000CCECD1E061E089910E942A0383E0C43C54
:1006B000D807C1F7DF91CF910895CDB7DEB768971E
:1006C0000FB6F894DEBF0FBECDBF87B3836B87BB79
:1006D000C49AC798C09AC0988FE19EE40197F1F739
:1006E00000C00000C09A81E20E9445038FEB0E9487
:1006F000450384E00E94450384E10E94450380E2B3
:100700000E9445038CE00E944503ECECF1E088EF89
:1007100091E0DF019C011D9221503040E1F78AB346
:10072000807C8ABB8BB38F638BBB83E083BF0E94CB
:100730001803612C712C03E010E062E0E62EF12C2E
:10074000CC24C394D12CE4E0AE2EB12CFEEF8F2E3E
:10075000F0E09F2E0E94BA00809134019091350103
:10076000009709F066C080E00E94FB00882339F002
:1007700080913701882319F081508093370181E0FF
:100780000E94FB00882339F080913701811103C05A
:1007900081E08093370184E00E94FB005090370194
:1007A000882349F031E053123DC0D0923501C09208
:1007B00034010E9418030E940E010E943A018AE04F
:1007C000E4E6F0E0DE01119601900D928A95E1F7E2
:1007D00025E0AE014F5F5F4F6EE08AE10E9492011B
:1007E0008CE0EEE6F0E0DE01119601900D928A9524
:1007F000E1F726E0AE014F5F5F4F6BE188E10E94B9
:10080000920144E550E06EE051106BE180E10E94FE
:1008100059010E9448038FE19EE40197F1F700C05F
:10082000000098CF5110C7CFF0923501E09234010B
:10083000C0CF8130910509F071C085E00E94FB00B6
:10084000882331F010923501109234010E94180370
:100850000E940E010E943A019A82898221E0AE0133
:100860004F5F5F4F67E28BE40E94920184E1EAE709
:10087000F0E0DE01119601900D928A95E1F72AE0F1
:10088000AE014F5F5F4F64E086E00E94920188E115
:10089000EEE8F0E0DE01119601900D928A95E1F705
:1008A0002CE0AE014F5F5F4F6CE086E00E9492014A
:1008B00086E1E6EAF0E0DE01119601900D928A955C
:1008C000E1F72BE0AE014F5F5F4F64E186E00E94ED
:1008D000920188E1ECEBF0E0DE01119601900D92BF
:1008E0008A95E1F72CE0AE014F5F5F4F6CE186E047
:1008F0000E94920180E1E4EDF0E0DE0111960190AA
:100900000D928A95E1F728E0AE014F5F5F4F64E2F8
:1009100086E00E9492010E9448031CCF823091051C
:1009200009F041C084E00E94FB00882341F00E944E
:10093000C50210933501009334010E9418030E94F0
:100940000E010E943A018AE0E4EEF0E0DE01119629
:1009500001900D928A95E1F725E0AE014F5F5F4F60
:1009600061E08DE10E94920141E850E061E08CE09D
:100970000E94220246E450E062E084E10E942202EA
:1009800040E250E063E08CE10E94220241E150E04D
:1009900064E084E20E9422020E944803AFE1BEE4C8
:1009A0001197F1F73CCF8330910509F05CC150906D
:1009B0004401552029F0711003C00E941803612CD6
:1009C00052E1752E442443940E94BA008091440160
:1009D000882309F474C0611064C066246394809114
:1009E00040018111612C8FE19EE40197F1F700C075
:1009F00000007A947110E8CF209144018091430166
:100A0000282BD1F440914501509146015093480163
:100A10004093470190914C0180914D014230510526
:100A200009F4C2C008F08EC0452B09F0B8C081118E
:100A3000B4C081E0809344010E940E010E943A01FB
:100A400060914A01660F660F80914901880F880FF7
:100A50000E943D0280914B01781608F4C9C0409174
:100A600041015091420162E082E00E94B001809118
:100A70004401882309F4E2C082E1EEEEF0E0DE01F9
:100A8000119601900D928A95E1F729E0AE014F5F32
:100A90005F4F62E18CE00E9492010E944803752C36
:100AA00059CE80913F0110923F01882309F49BCFDA
:100AB000B0923501A09234010E94180394CF85E0D2
:100AC0000E94FB00882329F08091430184258093B4
:100AD00043018091400180FF0CC02091470130917B
:100AE00048012130310529F010924601109245014C
:100AF0007ACF81FF0BC02091470130914801232B11
:100B000029F0D0924601C09245016DCF82FF0CC002
:100B100020914701309148012330310529F0F092AE
:100B20004601E09245015FCF83FF5DCF8091470191
:100B300090914801029709F456CF10934601009313
:100B4000450151CF43305105A1F160914B01ECE4D7
:100B5000F1E0261333C0262F30E0422F1216C4F1E5
:100B600090934C0180934D0120914901921364CFE1
:100B700090914A01981360CF6F3318F46F5F6093C0
:100B80004B01809141019091420101969093420165
:100B9000809341010E9457024FCF8150D6CF8B30B6
:100BA00008F047CF8F5FD1CF992309F442CF9150FE
:100BB000CCCF943108F03DCF9F5FC7CF3081391340
:100BC00004C03181381709F434CF2F5F3296C1CF7A
:100BD00040345CF4F901EE0FFF1FE45BFE4FDF01D0
:100BE00012974D915C915183408321503109B5CFCB
:100BF000711015C040904D01440C440C30904C01D4
:100C0000330C330C642D832D0E943D0261E0640D92
:100C100040E081E0830D0E94190173941BCFE72D02
:100C2000F0E0EE0FFF1FE45BFE4F6181660F660F81
:100C30008081880F880F0E943D02EFCF8091430191
:100C4000882309F42ACF8AE0E0E0F1E0DE01119682
:100C500001900D928A95E1F725E0AE014F5F5F4F5D
:100C600062E18BE118CF049709F074CD80E00E9417
:100C7000FB00882339F080913601882319F08150D8
:100C80008093360181E00E94FB00882339F0809137
:100C90003601811103C081E08093360184E00E9417
:100CA000FB00882371F08091360181114CC00E94B5
:100CB000C50210933501009334010E941803612C82
:100CC000712C0E940E010E943A018CE0EAE0F1E0F2
:100CD000DE01119601900D928A95E1F726E0AE01B2
:100CE0004F5F5F4F69E08AE10E9492018EE0E6E18A
:100CF000F1E0DE01119601900D928A95E1F727E06F
:100D0000AE014F5F5F4F61E186E10E9492018AE090
:100D1000E4E2F1E0DE01119601900D928A95E1F78F
:100D200025E0AE014F5F5F4F6FE18AE10E949201C3
:100D30008091360144E550E06DE081116FE180E182
:100D40000E945901E8CD813009F0BBCF10923501E6
:100D5000109234010E941803B4CF97FB072E16F4AB
:100D6000009407D077FD09D00E94C10607FC05D08A
:100D70003EF4909581959F4F0895709561957F4FB2
:100D80000895AA1BBB1B51E107C0AA1FBB1FA617D2
:100D9000B70710F0A61BB70B881F991F5A95A9F724
:100DA00080959095BC01CD010895CF92DF92EF928E
:100DB000FF92CF93DF93CDB7DEB72A970FB6F894A3
:100DC000DEBF0FBECDBF89879A87A985BA852D91D1
:100DD0003D914D915C9129833A834B835C83232B16
:100DE000242B252B41F424E239ED4BE557E02983F0
:100DF0003A834B835C8369817A818B819C812DE16D
:100E000033EF41E050E00E94820769017A01A7EACE
:100E1000B1E49B01AC010E94A10769837A838B83B3
:100E20009C83ACEEB4EFA70196010E94AF079B0133
:100E3000AC0189819A81AB81BC81820F931FA41F71
:100E4000B51FB7FF03C00197A109B048E985FA852E
:100E500080839183A283B3839F772A960FB6F894F9
:100E6000DEBF0FBECDBFDF91CF91FF90EF90DF903F
:100E7000CF9008950E94D506089580E690E00E94E4
:100E8000D5060895B0E0A0E08093600090936100E3
:100E9000A0936200B09363000895BB274A3031F4F9
:100EA000992322F4BDE2909581959F4F0C945907A8
:100EB000BB27FB015527AA27880F991FAA1FA41734
:100EC00010F0A41B83955051B9F7A05DAA3308F028
:100ED000A95DA193009779F7B111B1931192CB015C
:100EE0000C947207DC01FC01672F71917723E1F705
:100EF000329704C07C916D9370836291AE17BF07E7
:100F0000C8F30895052E97FB1EF400940E949907DC
:100F100057FD07D00E94B40707FC03D04EF40C9491
:100F2000990750954095309521953F4F4F4F5F4F12
:100F3000089590958095709561957F4F8F4F9F4F45
:100F400008950E94D607A59F900DB49F900DA49F71
:100F5000800D911D11240895B7FF0C94A1070E94E4
:100F6000A107821B930B0895A1E21A2EAA1BBB1B9B
:100F7000FD010DC0AA1FBB1FEE1FFF1FA217B30765
:100F8000E407F50720F0A21BB30BE40BF50B661F7B
:100F9000771F881F991F1A9469F76095709580953F
:100FA00090959B01AC01BD01CF010895A29FB001B6
:100FB000B39FC001A39F700D811D1124911DB29F8D
:0E0FC000700D811D1124911D0895F894FFCF2E
:100FCE00010000000D01080130012B011201030187
:100FDE002B01120130012B0112010301B300B800E5
:100FEE00C700D1009F00DB009000BD00DB00D100E8
:100FFE00B300B800A400B300BD00DB009000DB001E
:10100E009000BD00DB00D100B3009500AE009A0049
:10101E009F00DB00CC00B300A900DB00D100B300C1
:10102E00B8009000C700BD009000D100DB00D600D4
:10103E00BD00C700C700A400AE00C700D100C200AB
:10104E00DB00BD00F90003011C011201210130017A
:10105E002B012601210190001C0117012101120113
:10106E00F4002B010801F9002101F90021013001E2
:10107E000801EF0012010D01080130012B01EA00F9
:10108E00E5001C01F9002B01E000EF001201010246
:04109E000408102012
:00000001FF
