:100000000C942A000C9447000C9447000C94470071
:100010000C9447000C9447000C9447000C94470044
:100020000C9447000C9447000C9447000C94470034
:100030000C9447000C9447000C9447000C94470024
:100040000C9447000C9447000C9447000C94470014
:100050000C94470011241FBECFE5D4E0DEBFCDBF16
:1000600010E0A0E6B0E0E4E7FAE002C005900D92EF
:10007000AE3EB107D9F723E0AEEEB0E001C01D926D
:10008000A937B207E1F70E94A6010C9438050C9439
:10009000000089B380958F718093F5001092F40071
:1000A0001092F300EEEEF0E01082118212821382C1
:1000B000148208958435D8F46033C8F4962F969549
:1000C00096959695E82FF0E084E5989FE00DF11D58
:1000D0001124EF57FE4F2081677081E090E001C04E
:1000E000880F6A95EAF7442319F0822B80830895DC
:1000F00080958223FBCFCF92DF92EF92FF920F93F6
:100100001F93CF93DF93C82F7B01D5E0D80FF70162
:10011000C1907F0110E000E0D12CC601002E02C08A
:10012000959587950A94E2F780FF06C041E062E169
:10013000600F8C2F0E945A000F5F1F4F0730110570
:1001400061F7CF5FCD13E3CFDF91CF911F910F9177
:10015000FF90EF90DF90CF9008950F931F93CF9370
:10016000DF93C82F162F04E0080FD0E0612F6D0F2A
:1001700041E08C2F0E945A00DF5FD430B9F7CF5F87
:10018000C013F3CFDF91CF911F910F910895BF92CC
:10019000CF92DF92EF92FF920F931F93CF93DF9353
:1001A000D091FE00B090FF0001EF13E025E1E22EB8
:1001B000F12C3CE0C32ED12C01501109A9F401EF20
:1001C00013E085E1E82EF12C9CE0C92ED12C0150E2
:1001D000110979F5DF91CF911F910F91FF90EF9069
:1001E000DF90CF90BF9008950E949004B7010E94C5
:1001F0000004C82F0E949004B6010E940004DC177E
:1002000061F020910001E1E0F1E090E0921308C07C
:10021000C093FE008093FF00DDCFB812F2CFCCCFA9
:100220003081C31303C03181831731F29F5F32964F
:10023000EDCF0E949004B7010E940004C82F0E94D5
:100240009004B6010E94000420910001E1E0F1E079
:1002500090E09217E9F23081C31304C03181831713
:1002600009F4B5CF9F5F3296F4CF83E0809300010D
:100270001092F7001092F6001092F9001092F80018
:100280008AE08093010186E08093020199E09093D7
:1002900003018093040198E0909305018093060187
:1002A00083E090E09093FD008093FC009093FB002E
:1002B0008093FA008FEF8093FE008093FF0092B747
:1002C00089B389272091790330917A038227932774
:1002D000582F5695492F479544274795352F342B4E
:1002E000592F5695482F479544274795252F242B5E
:1002F0002817390751F08227932790937A03809328
:1003000079030E9495040C94C70085EA95EAF5CF1D
:100310006623A9F0C19AC49898E087FF12C0C59AD5
:10032000C79A22E02A95F1F700C0C79822E02A95E3
:10033000F1F700C0880F915081F7C49A0895C198D1
:10034000EACFC598EDCF60E00C948801CDB7DEB759
:1003500063970FB6F894DEBF0FBECDBF87B3836B34
:1003600087BBC49AC798C09AC0988FE19EE4019752
:10037000F1F700C00000C09A81E20E94A3018FEB58
:100380000E94A30184E00E94A30184E10E94A301D2
:1003900080E20E94A3018CE00E94A301E1E8F1E069
:1003A00088EF91E0DF019C011D9221503040E1F780
:1003B0008AB3807E8ABB8BB38F618BBB83E083BFA4
:1003C0000E9449000E943501412C312C63E0662EC9
:1003D000712C72E0A72EB12C88248394912C10915B
:1003E000F900112329F0311003C00E944900412C6B
:1003F000312E52E1552E39B330953F715091F300B3
:100400008091F5009091F400A0E8B0E0EEEEF0E00D
:100410002D91622F632311E009F410E071E0422F67
:10042000482309F470E01713BDC01082319620E014
:10043000A538B20769F78093F5009093F4005093C4
:10044000F3002091F900222309F4CCC04110BEC072
:10045000442443948111412C8FE19EE40197F1F7EC
:1004600000C000005A945110C6CF2091F90080912D
:10047000F800282BD1F44091FA005091FB005093E2
:10048000FD004093FC0090910101809102014230F7
:10049000510509F41CC108F0E8C0452B09F012C150
:1004A00081110EC191E09093F900E1E8F1E088EF4D
:1004B00091E0DF019C011D9221503040E1F710E0F6
:1004C00041E060E0812F0E945A0041E06FE2812FFD
:1004D0000E945A001F5F143599F710E041E0612F28
:1004E00080E00E945A0041E0612F83E50E945A009B
:1004F0001F5F103399F76091FF00660F660F8091C0
:10050000FE00880F880F0E94AD0010E0809100016E
:10051000181708F400C14AE0BE016F5F7F4F809159
:10052000F6009091F7000E94A00437E03B8BE1E0D9
:10053000F0E0EC0FFD1FE50DF11D0081011111C16F
:100540008091F900882309F43EC182E1E4E6F0E0FD
:10055000DE01119601900D928A95E1F7CE01019688
:100560007C011CE0D7016D917D917D01812F0E945E
:100570007B001A5F1234B1F780E40E94A30180E887
:100580000E94A30181E8E82E81E0F82E09E713E03C
:1005900061E0F70181917F010E9488010E151F051E
:1005A000B9F71DCF4081423040F0108261110BC07D
:1005B000422F40958423522B39CF4F5F40834230E6
:1005C00009F034CFF2CF822B922B30CF1092F4006F
:1005D000992309F441CF0E9435010E944900412C22
:1005E000312C3ACF292F2F7E2093F40094FF06C0A0
:1005F0009091F80031E093279093F80080FF0CC0B1
:100600002091FC003091FD002130310529F010923D
:10061000FB001092FA0020CF81FF0BC02091FC005C
:100620003091FD00232B29F09092FB008092FA007C
:1006300013CF82FF0CC02091FC003091FD002330CD
:10064000310529F0B092FB00A092FA0005CF83FF9C
:1006500003CF8091FC009091FD00029709F4FCCE3D
:100660007092FB006092FA00F7CE43305105A1F181
:1006700060910001E1E0F1E0261333C0262F30E065
:10068000422F1216C4F19093010180930201209130
:10069000FE0092130ACF9091FF00981306CF6F339C
:1006A00018F46F5F609300018091F6009091F7005D
:1006B00001969093F7008093F6000E94C700F5CE54
:1006C0008150D6CF8B3008F0EDCE8F5FD1CF9923FC
:1006D00009F4E8CE9150CCCF943108F0E3CE9F5F7F
:1006E000C7CF3081391304C03181381709F4DACE0D
:1006F0002F5F3296C1CF40345CF4F901EE0FFF1F3B
:10070000EF5FFE4FDF0112974D915C915183408363
:1007100021503109B5CF111115C000910201000F10
:10072000000FF0900101FF0CFF0C602F8F2D0E9435
:10073000AD0061E0600F40E081E08F0D0E945A0043
:100740001F5FE4CEE12FF0E0EE0FFF1FEF5FFE4FE3
:100750006181660F660F8081880F880F0E94AD004F
:10076000EFCF00530A3028F053948B898A5F8B8B2C
:10077000DECE95E0099F8001112404541F4F2B8881
:10078000ABEF2A0EF801C1908F01F12CE12CD12C96
:10079000C6010E2C02C0959587950A94E2F780FF5A
:1007A00006C041E062E06E0D822D0E945A00FFEF0C
:1007B000EF1AFF0A27E0E216F10451F723943B8970
:1007C0003211E0CFD1CF8091F800882309F4D4CE44
:1007D0008AE0E6E7F0E0DE01119601900D928A953D
:1007E000E1F7FE0131967F011BE1D7016D917D910B
:1007F0007D01812F0E947B001A5F1933B1F7BCCEB7
:1008000097FB072E16F4009407D077FD09D00E94BD
:10081000140407FC05D03EF4909581959F4F0895F0
:10082000709561957F4F0895AA1BBB1B51E107C0CE
:10083000AA1FBB1FA617B70710F0A61BB70B881F70
:10084000991F5A95A9F780959095BC01CD010895FF
:10085000CF92DF92EF92FF92CF93DF93CDB7DEB7C7
:100860002A970FB6F894DEBF0FBECDBF89879A874F
:10087000A985BA852D913D914D915C9129833A834B
:100880004B835C83232B242B252B41F424E239ED6D
:100890004BE557E029833A834B835C8369817A81F6
:1008A0008B819C812DE133EF41E050E00E94D50423
:1008B00069017A01A7EAB1E49B01AC010E94F4044A
:1008C00069837A838B839C83ACEEB4EFA701960196
:1008D0000E9402059B01AC0189819A81AB81BC8198
:1008E000820F931FA41FB51FB7FF03C00197A10973
:1008F000B048E985FA8580839183A283B3839F778B
:100900002A960FB6F894DEBF0FBECDBFDF91CF9110
:10091000FF90EF90DF90CF9008950E9428040895F3
:1009200080E690E00E9428040895B0E0A0E0809363
:10093000600090936100A0936200B09363000895FB
:10094000BB274A3031F4992322F4BDE2909581957A
:100950009F4F0C94AC04BB27FB015527AA27880F97
:10096000991FAA1FA41710F0A41B83955051B9F723
:10097000A05DAA3308F0A95DA193009779F7B111A2
:10098000B1931192CB010C94C504DC01FC01672FDB
:1009900071917723E1F7329704C07C916D93708356
:1009A0006291AE17BF07C8F30895052E97FB1EF49A
:1009B00000940E94EC0457FD07D00E94070507FC35
:1009C00003D04EF40C94EC0450954095309521954D
:1009D0003F4F4F4F5F4F089590958095709561956B
:1009E0007F4F8F4F9F4F08950E942905A59F900D1F
:1009F000B49F900DA49F800D911D11240895B7FF01
:100A00000C94F4040E94F404821B930B0895A1E259
:100A10001A2EAA1BBB1BFD010DC0AA1FBB1FEE1F78
:100A2000FF1FA217B307E407F50720F0A21BB30BC3
:100A3000E40BF50B661F771F881F991F1A9469F73F
:100A400060957095809590959B01AC01BD01CF019B
:100A50000895A29FB001B39FC001A39F700D811D97
:100A60001124911DB29F700D811D1124911D0895B7
:040A7000F894FFCF28
:100A740001000000B700B200AD00A8009400A3007C
:100A84009E00A80099008F00B2008A008500A8008B
:100A9400010204081026494949323F4040403F7F43
:100AA4000909090600000000007F091929461F20D2
:100AB40040201F3E4141413E7F494949417F020454
:100AC400027F7E1111117E3E4149497A3E514945CA
:100AD4003E00427F400042615149462141454B312D
:100AE4001814127F1027454545393C4A49493001BD
:0E0AF400710905033649494936064949291E4C
:00000001FF
