:100000000C94A0000C94BD000C94BD000C94BD0099
:100010000C94BD000C94BD000C94BD000C94BD006C
:100020000C94BD000C94BD000C94BD000C94BD005C
:100030000C94BD000C94BD000C94BD000C94BD004C
:100040000C94BD000C94BD000C94BD000C94BD003C
:100050000C94BD00003E1C08003E5149453E004244
:100060007F400042615149462141454B31181412ED
:100070007F1027454545393C4A49493001710905FA
:10008000033649494936064949291E000060600087
:1000900000000000007C041804783C4040207C04F0
:1000A0003F44402048545454247C080404087C14E1
:1000B00014140838444444387C0404047800417F14
:1000C000400000447D40003854545418384444449F
:1000D0007F38444444287F4444443820545454785E
:1000E0007F2018207F03047804037F404040407F36
:1000F0004141221C7F0204087F41417F41417F0929
:1001000009090626494949327F494949363E414154
:1001100041223F4040403F2040413F017F09192993
:10012000461F2040201F3E4141413E7F49494941F1
:100130007F0204027F7E1111117E3E4149497A00FF
:1001400011241FBECFE5D4E0DEBFCDBF11E0A0E695
:10015000B0E0E0EEF4E102C005900D92A436B107E4
:10016000D9F723E0A4E6B1E001C01D92AE39B20791
:10017000E1F70E947D030C946E0A0C9400000F932B
:100180001F93CF9329B320952F73809171014091D4
:100190006F0150917001ADE5B1E0E9E6F1E003E6F1
:1001A00011E09D91692F6223C1E009F4C0E071E084
:1001B000382F392309F470E0C7130FC0108231962D
:1001C0000A171B0771F780937101509370014093D8
:1001D0006F01CF911F910F9108953081323040F01F
:1001E000108261110AC0392F30958323492BE7CF44
:1001F0003F5F3083323019F7F3CF892B592BDFCF94
:1002000021E030E001C0220F8A95EAF78091700169
:10021000922F9095982390937001982F922381E0CC
:1002200009F480E0089584EA86BF06B607FEFDCF94
:10023000089583B984E886BF06B607FEFDCF08950A
:10024000E6EAF1E088EF91E0DF019C011D92215088
:100250003040E1F70895CF93DF93EC010E94130142
:1002600080EA0E9419018D2F0E9419018C2F0E9493
:1002700019010E94130181EA0E94190184E886BFD6
:1002800006B607FEFDCF83B194E996BF9AE19A9531
:10029000F1F700C0DF91CF910895EF92FF921F9385
:1002A000CF93DF93EC0180E3E82EFF24F394C701A2
:1002B0000E942B01182FC70101960E942B01982F35
:1002C000812F8F3F980789F09983888382E0E80E19
:1002D000F11C229628E3E21621E0F20641F7DF91B5
:1002E000CF911F91FF90EF90089519821882EECF61
:1002F0001092A2011092A1011092A0011092A401EB
:100300001092A30181E08093600092B789B389279E
:1003100020919E0330919F0382279327582F569553
:10032000492F479544274795352F342B592F5695FC
:10033000482F479544274795252F242B2817390701
:1003400091F18227932790939F0380939E030E94AD
:10035000CB0985E280939F0110929C011092990134
:1003600010929801E8E7F1E028E931E081E080832C
:10037000818382838383848385838683878338967E
:100380002E173F07A1F79BE09093770199E0909398
:1003900076018093750110927401109273018AE0C6
:1003A00080937201089585EA95EACDCFCE9B02C075
:1003B000C69A0895C69808958435C8F46033B8F491
:1003C000962F969596959695E82FF0E084E5989F60
:1003D000E00DF11D1124EA55FE4F677021E030E079
:1003E00001C0220F6A95EAF78081822B80830895ED
:1003F0005F926F927F928F929F92AF92BF92CF92B5
:10040000DF92EF92FF920F931F93CF93DF9300D071
:1004100000D000D0CDB7DEB7B82EA62ECA014AE074
:10042000BE016F5F7F4F0E94D609E12C85E0782ED8
:10043000E1E0F0E0EC0FFD1FEE0DF11D0081011178
:1004400016C026960FB6F894DEBF0FBECDBFDF9163
:10045000CF911F910F91FF90EF90DF90CF90BF90C1
:10046000AF909F908F907F906F905F900895005312
:100470000A3068F5FE2CFF0CFE0CFF0CFB0C079DF0
:1004800080011124075A1F4F612CF8018490D12C50
:10049000C12C912C562C5F0CC4010C2C02C09595DC
:1004A00087950A94E2F780FF05C06A2D6C0D852DB3
:1004B0000E94DC01FFEFCF1ADF0A87E0C816D104E3
:1004C00059F763940F5F1F4FE5E06E12DECFE394A0
:1004D000AFCFBF92CF92DF92EF92FF920F931F9315
:1004E000CF93DF93C82FD62F8A0185E0B82EBC0E9C
:1004F000F801C490F12CE12CD12CC6010E2C02C0C5
:10050000959587950A94E2F780FF05C06D2F6E0DD3
:100510008C2F0E94DC01FFEFEF1AFF0A87E0E8163C
:10052000F10459F70F5F1F4FCF5FCB11E1CFDF9180
:10053000CF911F910F91FF90EF90DF90CF90BF90E0
:100540000895EF92FF920F931F93CF93DF93C82FDD
:10055000E62EF22E8A01D0E0F801419151918F01EF
:100560006E2D8C2F0E946902DF5FCA5FFD12F4CFEF
:10057000DF91CF911F910F91FF90EF9008951F93FE
:10058000CF93DF93C82F142FD52F462F50E0682F1D
:1005900083E00E94F8014BE850E06C2F89E00E9454
:1005A0006902412F5D2F6C2F84E1DF91CF911F9164
:1005B0000C94F801CF93C0E060E08C2F0E94DC0126
:1005C0006FE28C2F0E94DC01CF5FC435A9F7C0E039
:1005D0006C2F80E00E94DC016C2F83E50E94DC011F
:1005E000CF5FC033A9F7CF91089589B380958F73FA
:1005F000809371011092700110926F01E9E6F1E0B1
:1006000010821182128213821482158208951F9320
:10061000CF93DF93D82F192FC62F0E94130180EAA2
:100620000E941901812F0E9419018D2F0E9419012A
:100630008C2F0E94190184E986BF8AE18A95F1F71F
:1006400000C08FE19EE40197F1F700C00000DF9148
:10065000CF911F910895FF920F931F93CF93DF9334
:10066000EC0100E311E06881F9802296C8010E9444
:1006700007036F2DC80101960E9407030E5F1F4FED
:10068000083381E0180779F7DF91CF911F910F911F
:10069000FF9008956623A9F0C19AC49898E087FF57
:1006A00012C0C59AC79A22E02A95F1F700C0C798F0
:1006B00022E02A95F1F700C0880F915081F7C49A83
:1006C0000895C198EACFC598EDCF60E00C944A0335
:1006D000CF93DF9380E40E94650380E80E94650366
:1006E000C6EAD1E061E089910E944A0383E0CE39F5
:1006F000D807C1F7DF91CF910895CDB7DEB7A697A0
:100700000FB6F894DEBF0FBECDBF87B3836B87BB38
:10071000C49AC798C09AC0988FE19EE40197F1F7F8
:1007200000C00000C09A81E20E9465038FEB0E9426
:10073000650384E00E94650384E10E94650380E212
:100740000E9465038CE00E946503E6EAF1E088EF11
:1007500091E0DF019C011D9221503040E1F78AB306
:10076000807C8ABB8BB38F638BBB83E083BF11B864
:1007700088E480B984E086BF90E080E00E942B018D
:10078000182F81E090E00E942B01123511F4803582
:10079000C1F062E590E080E00E94070360E581E03F
:1007A00090E00E94070361E082E090E00E9407036E
:1007B000CE01019628E0DC011D922A95E9F70E94FE
:1007C0002B030E94F502D698DE98BE9AC698109226
:1007D000A5011BA2212C0E94D6010E94BF0080917E
:1007E000650190916601009709F073C080E00E9456
:1007F0000001882339F080916801882319F0815025
:100800008093680181E00E940001882339F0809183
:100810006801811103C081E08093680184E00E9437
:10082000000110916801882371F081E090E011309F
:1008300021F0111108C082E090E09093660180934E
:1008400065010E94F5020E9420010E94DA028AE0FE
:10085000E5E6F0E0DE01599601900D928A95E1F708
:1008600080E1EFE6F0E0DE01119601900D928A95AD
:10087000E1F725E0AE01475E5F4F69E08BE10E9442
:10088000A10228E0AE014F5F5F4F61E181E10E946C
:10089000A1028CE0EFE7F0E0DE01119601900D92ED
:1008A0008A95E1F726E0AE014F5F5F4F6FE188E187
:1008B0000E94A10244E550E06DE011116FE187E074
:1008C0000E9469020E946803EFE1FEE43197F1F7AC
:1008D0007AC08130910509F079C085E00E9400015D
:1008E000882331F010926601109265010E94F50292
:1008F0000E9420010E94DA0288E091E09A838983B5
:1009000021E0AE014F5F5F4F67E28BE40E94A102DE
:1009100084E1EBE8F0E0DE01119601900D928A95FA
:10092000E1F72AE0AE014F5F5F4F64E086E00E948E
:10093000A10288E1EFE9F0E0DE01119601900D924D
:100940008A95E1F72CE0AE014F5F5F4F6CE086E0E7
:100950000E94A10286E1E7EBF0E0DE011196019032
:100960000D928A95E1F72BE0AE014F5F5F4F64E196
:1009700086E00E94A10288E1EDECF0E0DE01119634
:1009800001900D928A95E1F72CE0AE014F5F5F4F29
:100990006CE186E00E94A10280E1E5EEF0E0DE017C
:1009A000119601900D928A95E1F728E0AE014F5F14
:1009B0005F4F64E286E00E94A1020E9468038FE11B
:1009C0009EE40197F1F700C0000005CF8230910549
:1009D00009F04CC084E00E940001882309F440C063
:1009E0000E9478011092A501A3E0B0E0B0936601E7
:1009F000A09365010E94F5021BA2212CCE0149960D
:100A00000E944D010E9420010E94DA028AE0E5EF77
:100A1000F0E0DE01119601900D928A95E1F725E054
:100A2000AE014F5F5F4F61E08DE10E94A102498DF1
:100A30005A8D61E08CE00E94BF024B8D5C8D62E0BC
:100A400084E10E94BF024D8D5E8D63E08CE10E94C7
:100A5000BF024F8D58A164E084E20E94BF0232CFF2
:100A600085E00E9400018111BBCFC8CF8330910582
:100A700009F074C31091A2018091A001182BC1F15B
:100A8000211036C08091A50181112FC0E090A301F3
:100A9000F090A401CE0101960E944D01FE01319615
:100AA000DF0190E080E0482F2D913D912E153F050C
:100AB00008F0C3C023E005C0668177817187608735
:100AC000215032974217C0F3880F991FE1E0F0E000
:100AD000EC0FFD1FE80FF91FF182E082CE010196B5
:100AE0000E942B0381E08093A5010E94F5021BA2C6
:100AF00002E1FF24F394B8E2EB2E82E0D82E0E94AC
:100B0000D6010E94BF00112309F4ADC0FBA1F11171
:100B10009AC021E02BA38091710181111BA28FE16A
:100B20009EE40197F1F700C00000015041F7222434
:100B30002394111101C0212C1091A2018091A001D8
:100B4000182B8091A101182B122909F055C1809111
:100B50009801882319F081508093980180919C011D
:100B6000882309F4E0C080919D01825080939D010B
:100B700018160CF0D6C000917701C0909E010C2C85
:100B8000000CDD0826019FEF491A590AA8E7B1E0D9
:100B9000BEA3ADA32091760130E050E040E0082EE6
:100BA000000C990B3C01B3E06B0E711CE02FF0E0E0
:100BB000ADA0BEA070E060E04901A4E08A0E911CE7
:100BC000D501FD905D01FF2009F4D8C07F01B6E09A
:100BD000EB0EF11CCE14DF040CF0D0C0E415F505CB
:100BE0000CF0CCC0881599050CF0C8C02615370547
:100BF0000CF0C4C0CA01E3E0880F991FEA95E1F741
:100C000088589E4F680F791FFB01108210929C013B
:100C100084E090E0841B950B4AE0489F9001499F37
:100C2000300D11248091A3019091A401820F931F94
:100C30009093A4018093A30176C00196843091051E
:100C400009F031CF4FCF809170011092700188234D
:100C500009F465CF44E050E050936601409365018C
:100C60000E94F5025CCF85E00E940001882329F0F4
:100C70008091A1018F258093A1018091A101909184
:100C8000A201892B9091A001892B09F048CF809176
:100C90006401882319F0815080936401809171016F
:100CA00090E09C013595279535952795A3E095957E
:100CB0008795AA95E1F78170922F917020FD15C05C
:100CC0008823A9F020916401211113C0992309F40C
:100CD000C3C2811107C080919F01823018F08150FA
:100CE00080939F01D092640104C0882359F310922D
:100CF000640184E00E940001C82E80E00E9400018F
:100D0000C82A09F40CCF80919C01811108CFF09280
:100D10009C0180919F018C5F80939E01E0929D01D8
:100D2000FECE10929C0180919901882349F0809118
:100D30009A018E5F80939A018F32B4F110929901DB
:100D4000809172010DE0882309F4E8C081508093FE
:100D5000720128E731E0C901FC0148E051915111CD
:100D60001F5F4150D9F70896E1E088399E07A1F747
:100D70001111FCC081E08093A0013EC06F5F7F4FE6
:100D800038966830710509F01BCF4F5F5F4F6DA13A
:100D90007EA1685F7F4F7EA36DA32A5F3F4F4430E3
:100DA000510509F003CFBFCF909198019111D1CF98
:100DB00040919B01042E000C550B20919F0130E0C7
:100DC000B901675F7F4F461757070CF0C2CF421734
:100DD00053070CF4BECF89320CF4BBCF10929901AB
:100DE00080916000882329F08150809360008111F8
:100DF00074C081E08093A2010E9420010E94DA0267
:100E00004091A3015091A40162E082E00E94F801A8
:100E100068E7662E61E0762E512CE12C4301D40167
:100E20008D914D01811113C1B8E0EB0EE0E4EE129B
:100E3000F6CF38E0630E711C46E0540E58E15512AF
:100E4000ECCF80919801882309F433C180FF31C130
:100E500080919C01882391F010919D0100919E0149
:100E6000612F802F0E94DC0161E0610F802F0E94C2
:100E7000DC0162E0610F802F0E94DC01809199010A
:100E8000882391F010919A0100919B01612F802F8E
:100E90000E94DC0161E0610F802F0E94DC0162E0B2
:100EA000610F802F0E94DC018091A201882309F448
:100EB0002CC182E1EFEFF0E0DE01119601900D927E
:100EC0008A95E1F729E0AE014F5F5F4F62E18CE068
:100ED0000E94A1020E9468037ECC88E08093980162
:100EE00010929C0185E280939F018AE080937201B9
:100EF00027CF0E94C60968E070E00E943609992752
:100F0000FC01E858FE4F43E050E0208D211109C05C
:100F10004150510938974F3F5407B9F7015049F7ED
:100F20001DC02091770173E0880F991F7A95E1F732
:100F3000820F911D2091760196E0949FB001959FBC
:100F4000700D1124260F372F311D91E090939901D8
:100F50008D5F80939B012C5F20939A010E94C609AC
:100F60006CE070E00E9436098A5FF1CE93E019319F
:100F700020F492E0193008F491E0809174018F5FC1
:100F8000891718F48093740137CF1092740190E0A0
:100F900040E060E050E0EFEFD90180E07D91772301
:100FA00051F08E1708F4E82F481708F4482F9517CA
:100FB00008F4952F61E08F5F883081F75F5F285FCD
:100FC0003F4F543049F7662309F4D4CEA0917701FE
:100FD0002A2F30E080917501682F082E000C770BC6
:100FE00058E0E59FF0011124E20FF31FE60FF71F11
:100FF0001E161F066CF4F8E04F9FA0011124240F69
:10100000351F2B5F3F4F260F371F23353105DCF08F
:10101000819580937501809176018E5F8093760132
:101020008091730121E08227809373018091760182
:1010300046E0949F90011124820F932F911D889771
:101040000CF4DACED6CE8A0F80937701E9CFF090F8
:101050007701FE0C30907601350C8091730105E527
:1010600011E0882311F009E511E0412CF5E0FF0EB5
:10107000D801AD908D0155E0C52ED12CB12CB32DEA
:10108000B40DBCA3C5010C2C02C0969587950A949B
:10109000E2F780FF05C06CA18F2D8C190E94DC0146
:1010A000E1E0CE1AD10870F7439424E04212E0CF79
:1010B000BBCE80919F019DE4E92E91E0F92E2BE2B9
:1010C000922ECC24C394D12C48E0842E880ED701D4
:1010D000AD90BD907D0108E010E0C601002E02C079
:1010E000880F991F0A94E2F78A219B21892B29F006
:1010F000692D882D801B0E94DC010150110968F7C1
:101100009394EFE29E12E3CFA3CE8091A0018823B7
:1011100081F08EE0E1E1F1E0DE01119601900D92A7
:101120008A95E1F727E0AE014F5F5F4F62E186E10C
:10113000CFCE8091A101882309F4CCCE8AE0EFE1E3
:10114000F1E0DE01119601900D928A95E1F725E01C
:10115000AE014F5F5F4F62E18BE1BACE049709F0B9
:101160003ACB80E00E940001882339F0809167012A
:10117000882319F081508093670181E00E9400016B
:10118000882339F080916701811103C081E0809349
:10119000670184E00E940001882391F0809167013B
:1011A000811150C00E9478011092A50123E030E027
:1011B00030936601209365010E94F5021BA2212C49
:1011C0000E9420010E94DA028CE0E9E2F1E0DE01F7
:1011D000119601900D928A95E1F726E0AE014F5FDE
:1011E0005F4F69E08AE10E94A1028EE0E5E3F1E051
:1011F000DE01119601900D928A95E1F727E0AE018C
:101200004F5F5F4F61E186E10E94A1028AE0E3E463
:10121000F1E0DE01119601900D928A95E1F725E04B
:10122000AE014F5F5F4F6FE18AE10E94A1028091A2
:10123000670144E550E06DE081116FE180E10E94BB
:10124000690248CE813009F0BBCF1092660110923E
:1012500065010E94F502B4CF882309F443CD809143
:101260009F018A3408F03ECD8F5F3ACD97FB072E61
:1012700016F4009407D077FD09D00E944A0907FCB4
:1012800005D03EF4909581959F4F08957095619596
:101290007F4F0895AA1BBB1B51E107C0AA1FBB1FAC
:1012A000A617B70710F0A61BB70B881F991F5A95F2
:1012B000A9F780959095BC01CD010895CF92DF925A
:1012C000EF92FF92CF93DF93CDB7DEB72A970FB699
:1012D000F894DEBF0FBECDBF89879A87A985BA85EE
:1012E0002D913D914D915C9129833A834B835C8391
:1012F000232B242B252B41F424E239ED4BE557E039
:1013000029833A834B835C8369817A818B819C81B9
:101310002DE133EF41E050E00E940B0A69017A01B0
:10132000A7EAB1E49B01AC010E942A0A69837A838F
:101330008B839C83ACEEB4EFA70196010E94380A20
:101340009B01AC0189819A81AB81BC81820F931F83
:10135000A41FB51FB7FF03C00197A109B048E985D5
:10136000FA8580839183A283B3839F772A960FB6F1
:10137000F894DEBF0FBECDBFDF91CF91FF90EF900D
:10138000DF90CF9008950E945E09089581E690E075
:101390000E945E090895B0E0A0E080936100909300
:1013A0006200A0936300B09364000895BB274A30A5
:1013B00031F4992322F4BDE2909581959F4F0C94CE
:1013C000E209BB27FB015527AA27880F991FAA1FEF
:1013D000A41710F0A41B83955051B9F7A05DAA3350
:1013E00008F0A95DA193009779F7B111B19311921B
:1013F000CB010C94FB09DC01FC01672F7191772371
:10140000E1F7329704C07C916D9370836291AE17BF
:10141000BF07C8F30895052E97FB1EF400940E94A1
:10142000220A57FD07D00E943D0A07FC03D04EF464
:101430000C94220A50954095309521953F4F4F4F7F
:101440005F4F089590958095709561957F4F8F4F70
:101450009F4F08950E945F0AA59F900DB49F900D25
:10146000A49F800D911D11240895B7FF0C942A0AA2
:101470000E942A0A821B930B0895A1E21A2EAA1B2E
:10148000BB1BFD010DC0AA1FBB1FEE1FFF1FA21734
:10149000B307E407F50720F0A21BB30BE40BF50B31
:1014A000661F771F881F991F1A9469F760957095BA
:1014B000809590959B01AC01BD01CF010895A29F3D
:1014C000B001B39FC001A39F700D811D1124911D18
:1014D000B29F700D811D1124911D0895F894FFCFC6
:1014E00003010000000301FE0035010D012B01F98D
:1014F00000F40021013501EF002B011C0103010D57
:101500000135011C013A0135011C010D01B300B880
:1015100000C700D1009F00DB009000BD00DB00D1C0
:1015200000B300B800A400B300BD00DB009000DBF6
:10153000009000BD00DB00D100B3009500AE009A22
:10154000009F00DB00CC00B300A900DB00D100B39A
:1015500000B8009000C700BD009000D100DB00D6AD
:1015600000BD00C700C700A400AE00C700D100C284
:1015700000DB00BD0003010D0126011C012B013A17
:1015800001350130012B019000260121012B011CA6
:1015900001E500260112019000E000F900F400FED0
:1015A000003501120103012B0103012B013A011245
:1015B00001F9001C01170112013A013501F400EF95
:1015C00000260103013501EA00F9001C0110003872
:1015D000007C00FF011E2D3F121E2D3F2101020441
:0415E00008102000CF
:00000001FF
