:100000000C94A0000C94BD000C94BD000C94BD0099
:100010000C94BD000C94BD000C94BD000C94BD006C
:100020000C94BD000C94BD000C94BD000C94BD005C
:100030000C94BD000C94BD000C94BD000C94BD004C
:100040000C94BD000C94BD000C94BD000C94BD003C
:100050000C94BD00003E1C08003E5149453E004244
:100060007F400042615149462141454B31181412ED
:100070007F1027454545393C4A49493001710905FA
:10008000033649494936064949291E000060600087
:1000900000000000007C041804783C4040207C04F0
:1000A0003F44402048545454247C080404087C14E1
:1000B00014140838444444387C0404047800417F14
:1000C000400000447D40003854545418384444449F
:1000D0007F38444444287F4444443820545454785E
:1000E0007F2018207F03047804037F404040407F36
:1000F0004141221C7F0204087F41417F41417F0929
:1001000009090626494949327F494949363E414154
:1001100041223F4040403F2040413F017F09192993
:10012000461F2040201F3E4141413E7F49494941F1
:100130007F0204027F7E1111117E3E4149497A00FF
:1001400011241FBECFE5D4E0DEBFCDBF11E0A0E695
:10015000B0E0EAE2F5E102C005900D92A436B107E5
:10016000D9F723E0A4E6B1E001C01D92AE39B20791
:10017000E1F70E94BE030C94930A0C9400000F93C5
:100180001F93CF9329B320952F73809171014091D4
:100190006F0150917001ADE5B1E0E9E6F1E003E6F1
:1001A00011E09D91692F6223C1E009F4C0E071E084
:1001B000382F392309F470E0C7130FC0108231962D
:1001C0000A171B0771F780937101509370014093D8
:1001D0006F01CF911F910F9108953081323040F01F
:1001E000108261110AC0392F30958323492BE7CF44
:1001F0003F5F3083323019F7F3CF892B592BDFCF94
:1002000021E030E001C0220F8A95EAF78091700169
:10021000922F9095982390937001982F922381E0CC
:1002200009F480E0089584EA86BF06B607FEFDCF94
:10023000089583B984E886BF06B607FEFDCF08950A
:10024000E6EAF1E088EF91E0DF019C011D92215088
:100250003040E1F70895CF93DF93EC010E94130142
:1002600080EA0E9419018D2F0E9419018C2F0E9493
:1002700019010E94130181EA0E94190184E886BFD6
:1002800006B607FEFDCF83B194E996BF9AE19A9531
:10029000F1F700C0DF91CF910895EF92FF921F9385
:1002A000CF93DF93EC0180E3E82EFF24F394C701A2
:1002B0000E942B01182FC70101960E942B01982F35
:1002C000812F8F3F980789F09983888382E0E80E19
:1002D000F11C229628E3E21621E0F20641F7DF91B5
:1002E000CF911F91FF90EF90089519821882EECF61
:1002F0001092A2011092A1011092A0011092A401EB
:100300001092A30181E08093600092B789B389279E
:1003100020919E0330919F0382279327582F569553
:10032000492F479544274795352F342B592F5695FC
:10033000482F479544274795252F242B2817390701
:1003400091F18227932790939F0380939E030E94AD
:10035000F00985E280939F0110929C01109299010F
:1003600010929801E8E7F1E028E931E081E080832C
:10037000818382838383848385838683878338967E
:100380002E173F07A1F79BE09093770199E0909398
:1003900076018093750110927401109273018AE0C6
:1003A00080937201089585EA95EACDCFCE9B02C075
:1003B000C69A0895C69808958435C8F46033B8F491
:1003C000962F969596959695E82FF0E084E5989F60
:1003D000E00DF11D1124EA55FE4F677021E030E079
:1003E00001C0220F6A95EAF78081822B80830895ED
:1003F0005F926F927F928F929F92AF92BF92CF92B5
:10040000DF92EF92FF920F931F93CF93DF9300D071
:1004100000D000D0CDB7DEB7B82EA62ECA014AE074
:10042000BE016F5F7F4F0E94FB09E12C85E0782EB3
:10043000E1E0F0E0EC0FFD1FEE0DF11D0081011178
:1004400016C026960FB6F894DEBF0FBECDBFDF9163
:10045000CF911F910F91FF90EF90DF90CF90BF90C1
:10046000AF909F908F907F906F905F900895005312
:100470000A3068F5FE2CFF0CFE0CFF0CFB0C079DF0
:1004800080011124075A1F4F612CF8018490D12C50
:10049000C12C912C562C5F0CC4010C2C02C09595DC
:1004A00087950A94E2F780FF05C06A2D6C0D852DB3
:1004B0000E94DC01FFEFCF1ADF0A87E0C816D104E3
:1004C00059F763940F5F1F4FE5E06E12DECFE394A0
:1004D000AFCFBF92CF92DF92EF92FF920F931F9315
:1004E000CF93DF93C82FD62F8A0185E0B82EBC0E9C
:1004F000F801C490F12CE12CD12CC6010E2C02C0C5
:10050000959587950A94E2F780FF05C06D2F6E0DD3
:100510008C2F0E94DC01FFEFEF1AFF0A87E0E8163C
:10052000F10459F70F5F1F4FCF5FCB11E1CFDF9180
:10053000CF911F910F91FF90EF90DF90CF90BF90E0
:100540000895EF92FF920F931F93CF93DF93C82FDD
:10055000E62EF22E8A01D0E0F801419151918F01EF
:100560006E2D8C2F0E946902DF5FCA5FFD12F4CFEF
:10057000DF91CF911F910F91FF90EF9008951F93FE
:10058000CF93DF93C82F142FD52F462F50E0682F1D
:1005900083E00E94F8014BE850E06C2F89E00E9454
:1005A0006902412F5D2F6C2F84E1DF91CF911F9164
:1005B0000C94F801CF93C0E060E08C2F0E94DC0126
:1005C0006FE28C2F0E94DC01CF5FC435A9F7C0E039
:1005D0006C2F80E00E94DC016C2F83E50E94DC011F
:1005E000CF5FC033A9F7CF91089589B380958F73FA
:1005F000809371011092700110926F01E9E6F1E0B1
:1006000010821182128213821482158208951F9320
:10061000CF93DF93D82F192FC62F0E94130180EAA2
:100620000E941901812F0E9419018D2F0E9419012A
:100630008C2F0E94190184E986BF8AE18A95F1F71F
:1006400000C08FE19EE40197F1F700C00000DF9148
:10065000CF911F910895DF92EF92FF920F931F9316
:10066000CF93DF93CDB7DEB728970FB6F894DEBFF0
:100670000FBECDBF8C01CE0101960E944D01CE016F
:1006800001967C01FC0190E080E0382F419151916E
:1006900040175107D0F5FE01319623E005C0468191
:1006A000578151874087215032973217C0F3880F06
:1006B000991FE1E0F0E0EC0FFD1FE80FF91F118337
:1006C000008300E311E0F7016081D180F2E0EF0EDA
:1006D000F11CC8010E9407036D2DC80101960E94FC
:1006E00007030E5F1F4F083381E0180761F7289654
:1006F0000FB6F894DEBF0FBECDBFDF91CF911F9133
:100700000F91FF90EF90DF9008950196843091054E
:1007100009F0BBCFECCF6623A9F0C19AC49898E04A
:1007200087FF12C0C59AC79A22E02A95F1F700C048
:10073000C79822E02A95F1F700C0880F915081F701
:10074000C49A0895C198EACFC598EDCF60E00C94A3
:100750008B03CF93DF9380E40E94A60380E80E947E
:10076000A603C6EAD1E061E089910E948B0383E091
:10077000CE39D807C1F7DF91CF910895CDB7DEB755
:10078000A6970FB6F894DEBF0FBECDBF87B3836BBD
:1007900087BBC49AC798C09AC0988FE19EE401971E
:1007A000F1F700C00000C09A81E20E94A6038FEB1F
:1007B0000E94A60384E00E94A60384E10E94A6038F
:1007C00080E20E94A6038CE00E94A603E6EAF1E024
:1007D00088EF91E0DF019C011D9221503040E1F74C
:1007E0008AB3807C8ABB8BB38F638BBB83E083BF70
:1007F00011B888E480B984E086BF90E080E00E9470
:100800002B01182F81E090E00E942B01123511F48A
:10081000803579F062E590E080E00E94070360E5B2
:1008200081E090E00E94070361E082E090E00E9496
:1008300007030E94F502D698DE98BE9AC6981092D9
:10084000A501212C10E00E94D6010E94BF008091DA
:10085000650190916601009709F073C080E00E94E5
:100860000001882339F080916801882319F08150B4
:100870008093680181E00E940001882339F0809113
:100880006801811103C081E08093680184E00E94C7
:10089000000100916801882371F081E090E001304F
:1008A00021F0011108C082E090E0909366018093EE
:1008B00065010E94F5020E9420010E94DA028AE08E
:1008C000E5E6F0E0DE01599601900D928A95E1F798
:1008D00080E1EFE6F0E0DE01119601900D928A953D
:1008E000E1F725E0AE01475E5F4F69E08BE10E94D2
:1008F000A10228E0AE014F5F5F4F61E181E10E94FC
:10090000A1028CE0EFE7F0E0DE01119601900D927C
:100910008A95E1F726E0AE014F5F5F4F6FE188E116
:100920000E94A10244E550E06DE001116FE187E013
:100930000E9469020E94A9038FE19EE40197F1F7EA
:100940007AC08130910509F079C085E00E940001EC
:10095000882331F010926601109265010E94F50221
:100960000E9420010E94DA0288E091E09A83898344
:1009700021E0AE014F5F5F4F67E28BE40E94A1026E
:1009800084E1EBE8F0E0DE01119601900D928A958A
:10099000E1F72AE0AE014F5F5F4F64E086E00E941E
:1009A000A10288E1EFE9F0E0DE01119601900D92DD
:1009B0008A95E1F72CE0AE014F5F5F4F6CE086E077
:1009C0000E94A10286E1E7EBF0E0DE0111960190C2
:1009D0000D928A95E1F72BE0AE014F5F5F4F64E126
:1009E00086E00E94A10288E1EDECF0E0DE011196C4
:1009F00001900D928A95E1F72CE0AE014F5F5F4FB9
:100A00006CE186E00E94A10280E1E5EEF0E0DE010B
:100A1000119601900D928A95E1F728E0AE014F5FA3
:100A20005F4F64E286E00E94A1020E94A903AFE149
:100A3000BEE41197F1F700C0000005CF82309105A8
:100A400009F04CC084E00E940001882309F440C0F2
:100A50000E9478011092A501E3E0F0E0F0936601B6
:100A6000E09365010E94F502212C10E0CE01499629
:100A70000E944D010E9420010E94DA028AE0E5EF07
:100A8000F0E0DE01119601900D928A95E1F725E0E4
:100A9000AE014F5F5F4F61E08DE10E94A102498D81
:100AA0005A8D61E08CE00E94BF024B8D5C8D62E04C
:100AB00084E10E94BF024D8D5E8D63E08CE10E9457
:100AC000BF024F8D58A164E084E20E94BF0232CF82
:100AD00085E00E9400018111BBCFC8CF8330910512
:100AE00009F061C30091A2018091A001082B91F04F
:100AF000111110C08091A501811109C08091A3013D
:100B00009091A4010E942B0381E08093A5010E9493
:100B1000F502212C12E1FF24F39488E2E82E92E002
:100B2000D92E0E94D6010E94BF00002309F4A2C062
:100B3000211090C022242394809171018111212CD5
:100B4000EFE1FEE43197F1F700C00000115049F7E2
:100B50000111E5C18091A2018111D1C11091A001C3
:100B60008091A101182B09F4E3C01091A00111118B
:100B7000C6C10E9420010E94DA024091A301509157
:100B8000A40162E082E00E94F80158E7652E51E07E
:100B9000752E412C512C4301D4018D914D018111B1
:100BA00079C2B8E05B0EE0E45E12F6CF38E0630E87
:100BB000711C66E0460E88E14812ECCF80919801E6
:100BC000882309F49BC280FF99C280919C018823ED
:100BD00091F000919D01F0909E01602F8F2D0E9459
:100BE000DC0161E0600F8F2D0E94DC0162E0600F8C
:100BF0008F2D0E94DC0180919901882391F0009152
:100C00009A01F0909B01602F8F2D0E94DC0161E022
:100C1000600F8F2D0E94DC0162E0600F8F2D0E941B
:100C2000DC018091A201882309F494C282E1EFEFF4
:100C3000F0E0DE01119601900D928A95E1F729E02E
:100C4000AE014F5F5F4F62E18CE00E94A1020E9403
:100C5000A903F9CD8091700110927001882309F4E5
:100C60006FCFA4E0B0E0B0936601A09365010E944D
:100C7000F50266CF85E00E940001882329F080916B
:100C8000A1018F258093A1018091A1019091A201E2
:100C9000892B9091A001892B09F052CF809164019A
:100CA000882319F08150809364018091710190E054
:100CB0009C013595279535952795B3E095958795B2
:100CC000BA95E1F78170922F917020FD15C08823AD
:100CD000A9F020916401211113C0992309F4E1C204
:100CE000811107C080919F01823018F0815080935C
:100CF0009F01D092640104C0882359F310926401CB
:100D000084E00E940001C82E80E00E940001C82AF1
:100D100009F416CF80919C01811112CFF0929C01B1
:100D200080919F018C5F80939E01E0929D0108CF8E
:100D300080919801882319F08150809398018091C7
:100D40009C01882309F46FC080919D01825080939B
:100D50009D0118160CF065C000917701A0919E01CD
:100D60002A2FAA0F330B3EA32DA329013FEF431ACD
:100D7000530AF8E7EF2EF1E0FF2E2091760130E0E4
:100D800050E040E0082E000C990B3C0163E0660E39
:100D9000711CE02FF0E0570170E060E04901A4E031
:100DA0008A0E911CD501DD905D01DD2009F46CC037
:100DB0006F01B6E0CB0ED11CADA1BEA1AC15BD0537
:100DC0000CF062C0E415F5050CF05EC088159905BD
:100DD0000CF05AC0261537050CF056C0CA01E3E0E6
:100DE000880F991FEA95E1F788589E4F680F791F81
:100DF000FB01108210929C0184E090E0841B950B13
:100E00004AE0489F9001499F300D11248091A30131
:100E10009091A401820F931F9093A4018093A3014A
:100E200002C010929C0180919901882349F0809121
:100E30009A018E5F80939A018F32CCF110929901C2
:100E4000809172010DE0882309F48CC08150809359
:100E5000720148E751E028E931E0CA01FC0168E08D
:100E6000719171111F5F6150D9F7089628173907E2
:100E7000A9F711119FC081E08093A0018091A20188
:100E8000882309F472CE3BC06F5F7F4F389668307D
:100E9000710509F087CF4F5F5F4FF8E0EF0EF11C4F
:100EA0002A5F3F4F4430510509F073CFBCCF90917A
:100EB00098019111CECF40919B01042E000C550B4F
:100EC00020919F0130E0B901675F7F4F46175707B8
:100ED0000CF0BFCF421753070CF4BBCF89320CF490
:100EE000B8CF1092990180916000882329F0815039
:100EF00080936000811115C081E08093A2018091F0
:100F0000A501811109C08091A3019091A4010E94C3
:100F10002B0381E08093A5010E94F502212C11E0B2
:100F200028CE88E08093980110929C0185E28093FE
:100F30009F018AE08093720183CF0E94EB0968E0F1
:100F400070E00E945B099927FC01E858FE4F43E0DE
:100F500050E0208D211109C04150510938974F3F71
:100F60005407B9F7015049F71DC02091770163E09C
:100F7000880F991F6A95E1F7820F911D20917601E4
:100F800096E0949FB001959F700D1124260F372F86
:100F9000311D91E0909399018D5F80939B012C5FAF
:100FA00020939A010E94EB096CE070E00E945B09BB
:100FB0008A5F4DCF93E0193120F492E0193008F4A4
:100FC00091E0809174018F5F891718F48093740108
:100FD00055CF10927401F0E080E060E030E02FEF38
:100FE000DA0190E07D91772351F0921708F4292FD0
:100FF000891708F4892FF31708F4F32F61E09F5F36
:10100000983081F73F5F485F5F4F343049F7662380
:1010100009F431CFA09177016A2F70E0E09175015A
:101020004E2F0E2E000C550B98E0299F9001112495
:10103000260F371F240F351F1216130664F428E0FD
:10104000829FC0011124860F971F0596840F951F5C
:1010500083359105DCF0E195E0937501809176018F
:101060008E5F809376018091730191E08927809350
:1010700073018091760166E0F69F90011124820F42
:10108000932F911D88970CF4F9CE36CFEA0FE09399
:101090007701E9CF00917701050D80917601840DEC
:1010A0008BA380917301811126C085E591E07C01BD
:1010B000312C0B5FD701AD907D0145E0C42ED12CC2
:1010C000B12CBBA1B30DBCA3C5010C2C02C09695DD
:1010D00087950A94E2F780FF05C06CA1802F8C19D8
:1010E0000E94DC01E1E0CE1AD10870F7339424E0CD
:1010F0003212E0CF56CD89E591E0D9CF80919F01A2
:101100009DE4C92E91E0D92E0BE2AA24A394B12C20
:1011100038E0732E780ED6018D909D906D0188E099
:10112000E82EF12CC5010E2C02C0880F991F0A94DD
:10113000E2F788219921892B29F0602F872D8E19BC
:101140000E94DC01B1E0EB1AF10860F70F5F0F328B
:1011500011F73BCD8091A001882381F08EE0E1E181
:10116000F1E0DE01119601900D928A95E1F727E0FA
:10117000AE014F5F5F4F62E186E167CD8091A101D3
:10118000882309F464CD8AE0EFE1F1E0DE011196F5
:1011900001900D928A95E1F725E0AE014F5F5F4F18
:1011A00062E18BE152CD049709F04DCB80E00E94C3
:1011B0000001882339F080916701882319F081505C
:1011C0008093670181E00E940001882339F08091BB
:1011D0006701811103C081E08093670184E00E9470
:1011E0000001882391F080916701811150C00E9415
:1011F00078011092A50123E030E03093660120933E
:1012000065010E94F502212C10E00E9420010E943D
:10121000DA028CE0E9E2F1E0DE01119601900D9234
:101220008A95E1F726E0AE014F5F5F4F69E08AE102
:101230000E94A1028EE0E5E3F1E0DE01119601904B
:101240000D928A95E1F727E0AE014F5F5F4F61E1B4
:1012500086E10E94A1028AE0E3E4F1E0DE0111965A
:1012600001900D928A95E1F725E0AE014F5F5F4F47
:101270006FE18AE10E94A1028091670144E550E09C
:101280006DE081116FE180E10E946902E0CC813064
:1012900009F0BBCF10926601109265010E94F50221
:1012A000B4CF882309F425CD80919F018A3408F0BA
:1012B00020CD8F5F1CCD97FB072E16F4009407D02E
:1012C00077FD09D00E946F0907FC05D03EF4909588
:1012D00081959F4F0895709561957F4F0895AA1B42
:1012E000BB1B51E107C0AA1FBB1FA617B70710F011
:1012F000A61BB70B881F991F5A95A9F78095909543
:10130000BC01CD010895CF92DF92EF92FF92CF936F
:10131000DF93CDB7DEB72A970FB6F894DEBF0FBEC6
:10132000CDBF89879A87A985BA852D913D914D9129
:101330005C9129833A834B835C83232B242B252BBD
:1013400041F424E239ED4BE557E029833A834B839E
:101350005C8369817A818B819C812DE133EF41E04F
:1013600050E00E94300A69017A01A7EAB1E49B01CA
:10137000AC010E944F0A69837A838B839C83ACEE15
:10138000B4EFA70196010E945D0A9B01AC0189811F
:101390009A81AB81BC81820F931FA41FB51FB7FF39
:1013A00003C00197A109B048E985FA85808391833C
:1013B000A283B3839F772A960FB6F894DEBF0FBE41
:1013C000CDBFDF91CF91FF90EF90DF90CF90089548
:1013D0000E948309089581E690E00E9483090895A0
:1013E000B0E0A0E08093610090936200A09363005E
:1013F000B09364000895BB274A3031F4992322F456
:10140000BDE2909581959F4F0C94070ABB27FB0185
:101410005527AA27880F991FAA1FA41710F0A41BED
:1014200083955051B9F7A05DAA3308F0A95DA19347
:10143000009779F7B111B1931192CB010C94200A66
:10144000DC01FC01672F71917723E1F7329704C02B
:101450007C916D9370836291AE17BF07C8F30895B6
:10146000052E97FB1EF400940E94470A57FD07D0F3
:101470000E94620A07FC03D04EF40C94470A509570
:101480004095309521953F4F4F4F5F4F0895909570
:101490008095709561957F4F8F4F9F4F08950E9463
:1014A000840AA59F900DB49F900DA49F800D911D5F
:1014B00011240895B7FF0C944F0A0E944F0A821B13
:1014C000930B0895A1E21A2EAA1BBB1BFD010DC0B0
:1014D000AA1FBB1FEE1FFF1FA217B307E407F507E4
:1014E00020F0A21BB30BE40BF50B661F771F881FC0
:1014F000991F1A9469F760957095809590959B0156
:10150000AC01BD01CF010895A29FB001B39FC001FE
:10151000A39F700D811D1124911DB29F700D811D1F
:0A1520001124911D0895F894FFCFE7
:10152A0003010000000301FE0035010D012B01F942
:10153A0000F40021013501EF002B011C0103010D0C
:10154A000135011C013A0135011C010D01B300B836
:10155A0000C700D1009F00DB009000BD00DB00D176
:10156A0000B300B800A400B300BD00DB009000DBAC
:10157A00009000BD00DB00D100B3009500AE009AD8
:10158A00009F00DB00CC00B300A900DB00D100B350
:10159A0000B8009000C700BD009000D100DB00D663
:1015AA0000BD00C700C700A400AE00C700D100C23A
:1015BA0000DB00BD0003010D0126011C012B013ACD
:1015CA0001350130012B019000260121012B011C5C
:1015DA0001E500260112019000E000F900F400FE86
:1015EA00003501120103012B0103012B013A0112FB
:1015FA0001F9001C01170112013A013501F400EF4B
:10160A0000260103013501EA00F9001C0110003827
:10161A00007C00FF011E2D3F121E2D3F21010204F6
:04162A000810200084
:00000001FF
