:100000000C942A000C9447000C9447000C94470071
:100010000C9447000C9447000C9447000C94470044
:100020000C9447000C9447000C9447000C94470034
:100030000C9447000C9447000C9447000C94470024
:100040000C9447000C9447000C9447000C94470014
:100050000C94470011241FBECFE5D4E0DEBFCDBF16
:1000600011E0A0E6B0E0E8E4F0E102C005900D92F6
:10007000A834B107D9F723E0A8E4B1E001C01D928C
:10008000A038B207E1F70E946B010C9422080C948F
:10009000000089B380958F738093510110925001B5
:1000A00010924F01E9E4F1E0108211821282138272
:1000B00014821582089521E030E001C0220F8A9554
:1000C000EAF780915001922F9095982390935001D8
:1000D000982F922381E009F480E008951092850121
:1000E0001092840110928301109287011092860170
:1000F00081E08093600092B789B3892720918003C3
:100100003091810382279327582F5695492F479581
:1001100044274795352F342B592F5695482F47950F
:1001200044274795252F242B2817390791F182273B
:10013000932790938103809380030E944E0785E26A
:100140008093820110927F0110927C0110927B01BA
:10015000EBE5F1E02BE731E081E08083818382836E
:100160008383848385838683878338962E173F070E
:10017000A1F79BE090935A0199E0909359018093E5
:10018000580110925701109256018AE08093550150
:10019000089585EA95EACDCF8435C8F46033B8F484
:1001A000962F969596959695E82FF0E084E5989F82
:1001B000E00DF11D1124E857FE4F677021E030E09B
:1001C00001C0220F6A95EAF78081822B808308950F
:1001D000BF92CF92DF92EF92FF920F931F93CF9334
:1001E000DF93C82FD62F7A0185E0B82EBC0EF70119
:1001F000C1907F0110E000E0D12CC601002E02C0AA
:10020000959587950A94E2F780FF05C06D2F600FE2
:100210008C2F0E94CC000F5F1F4F0730110569F72C
:10022000CF5FCB11E4CFDF91CF911F910F91FF9062
:10023000EF90DF90CF90BF900895CF93C0E060E043
:100240008C2F0E94CC006FE28C2F0E94CC00CF5FDD
:10025000C435A9F7C0E06C2F80E00E94CC006C2F61
:1002600083E50E94CC00CF5FC033A9F7CF910895FA
:100270006623A9F0C19AC49898E087FF12C0C59A76
:10028000C79A22E02A95F1F700C0C79822E02A9584
:10029000F1F700C0880F915081F7C49A0895C19872
:1002A000EACFC598EDCF60E00C943801CF93DF938F
:1002B00080E40E94530180E80E945301C8E8D1E025
:1002C00061E089910E94380183E0C038D807C1F706
:1002D000DF91CF910895CDB7DEB7AD970FB6F89403
:1002E000DEBF0FBECDBF87B3836B87BBC49AC798F1
:1002F000C09AC0988FE19EE40197F1F700C000001A
:10030000C09A81E20E9453018FEB0E94530184E066
:100310000E94530184E10E94530180E20E94530134
:100320008CE00E945301E8E8F1E088EF91E0DF0102
:100330009C011D9221503040E1F78AB3807C8ABB3A
:100340008BB38F638BBB83E083BF0E944900109205
:100350005401109253011092520110928501109293
:100360008301109284011AA6212C8091530190914F
:100370005401B12C019709F08DC0809185019091B5
:100380008301892B11E009F410E0B12E112309F447
:1003900081C0211004C00E9449001AA6212E02E14A
:1003A0004BEBE42E40E0F42EAA24A39411E058E293
:1003B000952E62E0862E75EAC72E73E5D72EEAE009
:1003C0007E2EFAE26F2E29B320952F7340914F01B4
:1003D0008091510130915001A5EBB0E0E9E4F1E0EA
:1003E0009D91692F622355245394611101C0512CB2
:1003F00071E0592F582309F470E057124DC0108254
:100400003196EA16FB0661F7809351013093500153
:1004100040934F014091530150915401452B09F0F5
:10042000FAC080E00E945B00882339F0809152017D
:10043000882319F081508093520181E00E945B0073
:10044000882331F080915201811102C01093520132
:1004500085E00E945B00882399F1809152018823F6
:1004600071F049E250E060E070E0CE0101960E9438
:100470008E0789819A81853A934509F481C00E944B
:100480006E0061E070E070935401609353010E942C
:1004900049001BC0212C83CF5081523040F0108284
:1004A00061110BC0592F50958523492BA9CF5F5F50
:1004B0005083523009F0A4CFF2CF892B392BA0CF33
:1004C00083E00E945B008111C8CFAFE1BEE41197C9
:1004D000F1F700C00000015009F075CF8091530181
:1004E00090915401892B09F041C1E8E8F1E088EFCF
:1004F00091E0DF019C011D9221503040E1F70E9404
:100500001D018AE0E5E6F0E0DE01119601900D9212
:100510008A95E1F7BE016F5F7F4F7B011AE1D7013A
:100520004D915D917D016EE0812F0E94E8001A5F80
:100530001833A9F78CE0EFE6F0E0DE0111960190A8
:100540000D928A95E1F7FE0131967F0118E1D701FE
:100550004D915D917D016BE1812F0E94E8001A5F52
:100560001C33A9F7809152016BE1811101C06EE04B
:100570004BEB50E080E10E94E8000E945601F5CE6E
:100580001092850110928401109283018B819C81CD
:1005900090938701809386018D81811101C081E054
:1005A000809360009E819093820180E2FE013796E5
:1005B000ABE5B1E001900D928A95E1F78FA18093B0
:1005C0005A0188A58093590129A5211101C021E074
:1005D0002093580110927F0110927C0110927B01B0
:1005E000109257011092560170925501911107C057
:1005F00010938201811109C01093590142CF9B349D
:10060000C8F39AE490938201F5CF8B3208F439CF86
:100610006092590136CFBB2001F17AA5711107C054
:1006200091E09AA7882309F450CF1AA64ECF1092D2
:100630005001332309F449CF109254011092530111
:100640001092520110928501109283011092840140
:100650000E9449001AA6212C38CF84E00E945B003A
:10066000882381F180918401982F9A2590938401A9
:10067000813041F1DA82C9828091860190918701AF
:100680009C838B83809160008D83809182018E8317
:1006900080E2EBE5F1E0DE01179601900D928A957C
:1006A000E1F780915A018FA38091590188A7809129
:1006B000580189A749E250E060E070E0CE01019660
:1006C0000E949E078091840190918501892B9091D1
:1006D0008301892B09F0F9CE80914801882319F014
:1006E0008150809348018091510190E09C013595A3
:1006F00027953595279533E0959587953A95E1F7B8
:100700008170922F917020FD15C08823A9F020914F
:100710004801211113C0992309F421C3811107C095
:1007200080918201823018F0815080938201809202
:10073000480104C0882359F31092480185E00E94C3
:100740005B00582E80E00E945B00582A09F4BDCE61
:1007500080917F018111B9CE10937F018091820138
:100760008C5F8093810190928001AFCE10918501C2
:1007700080918301182B80918401182B09F0CBC044
:1007800080917B01882319F0815080937B018091B7
:100790007F01882309F46BC080918001825080938F
:1007A000800118160CF061C000915A01C0908101BF
:1007B0000C2C000CDD083601BFEF6B1A7B0AEBE551
:1007C000F1E0FDA7ECA72091590130E050E040E0B6
:1007D000082E000C990B4C01F3E08F0E911CE02FBA
:1007E000F0E0ACA4BDA470E060E02901A4E04A0EF2
:1007F000511CD501FD905D01FF2009F44EC07F0121
:10080000B6E0EB0EF11CCE14DF040CF046C0E6158A
:10081000F7050CF042C0841595050CF03EC0281574
:100820003905DCF5CA01A3E0880F991FAA95E1F705
:10083000855A9E4F680F791FFB01108210927F012D
:1008400024E030E0241B350B8AE0829FA001839FC7
:10085000500D11248091860190918701840F951F7E
:10086000909387018093860102C010927F0180914E
:100870007C01882349F080917D018E5F80937D010A
:100880008F320CF110927C01809155018111DEC0F4
:100890000DE088E0E82EF12C05C16F5F7F4F3896A0
:1008A0006830710509F0A5CF4F5F5F4F6CA57DA53E
:1008B000685F7F4F7DA76CA72A5F3F4F443051058B
:1008C00009F08DCFD4CF90917B019111C2C040919E
:1008D0007E01042E000C550B2091820130E0B901FD
:1008E000675F7F4F461757070CF0B3C04217530797
:1008F0000CF4AFC089320CF4ACC010927C01809132
:100900006000882329F0815080936000811192C09B
:1009100081E080938501E8E8F1E088EF91E0DF0174
:100920009C011D9221503040E1F70E941D014AE0D8
:10093000BE016F5F7F4F80918601909187010E9479
:100940005907A12C77E0B72EE5E09E2EE1E0F0E01C
:10095000EC0FFD1FEA0DF11D008101113BC15BE5AC
:10096000652E51E0752E512CE12C4301D4018D915F
:100970004D0181115DC1B8E0EB0EE0E4EE12F6CF5F
:1009800038E0630E711C66E0560E78E15712ECCF2A
:1009900080917B01882309F47DC180FF7BC1809118
:1009A0007F01882391F01091800100918101612FD6
:1009B000802F0E94CC0061E0610F802F0E94CC004C
:1009C00062E0610F802F0E94CC0080917C0188231F
:1009D00091F010917D0100917E01612F802F0E9486
:1009E000CC0061E0610F802F0E94CC0062E0610FBB
:1009F000802F0E94CC0080918501882309F474C166
:100A000082E1EBE7F0E0DE01119601900D928A950C
:100A1000E1F79E012F5F3F4F79011CE0D7014D9117
:100A20005D917D0162E1812F0E94E8001A5F12341E
:100A3000A9F7A3CD88E080937B0110927F0185E226
:100A4000809382018AE0809355011ECF815080936C
:100A500055014BE551E0CA01FC0128E0319131110B
:100A60001F5F2150D9F70896E1E08B379E07A1F769
:100A7000111140C081E0809383014DCF0E9449074E
:100A8000B7010E94B9069927FC01E55AFE4F43E0E1
:100A900050E0208D211109C04150510938974F3F36
:100AA0005407B9F7015051F71DC020915A01F3E0E6
:100AB000880F991FFA95E1F7820F911D2091590136
:100AC00096E0949FB001959F700D1124260F372F4B
:100AD000311D91E090937C018D5F80937E012C5FAE
:100AE00020937D010E9449076CE070E00E94B906E6
:100AF0008A5FADCF93E0193120F492E0193008F409
:100B000091E0809157018F5F891718F48093570106
:100B100002CF1092570170E0F0E030E020E08FEF5C
:100B2000DA0190E06D91662351F0981708F4892F4F
:100B3000F91708F4F92F721708F4722F31E09F5F4C
:100B4000983081F72F5F485F5F4F243049F7332398
:100B500009F490CFE0915A014E2F50E06091580176
:100B6000262F062E000C330BB8E08B9FC0011124FA
:100B7000840F951F820F931F1816190664F4A8E0BE
:100B8000FA9FC0011124840F951F0596820F931FB1
:100B900083359105DCF0619560935801809159018E
:100BA0008E5F809359018091560191E0892780934F
:100BB000560180915901B6E07B9F90011124820F6C
:100BC000932F911D88970CF4A6CEA2CE6E0F609342
:100BD0005A01E9CF00530A3020F0A39436E0B30E57
:100BE000B5CE099D800111240B5E1E4F6BEF862E42
:100BF0008B0CD801CD908D01F12CE12CD12CC601AC
:100C00000E2C02C0959587950A94E2F780FF05C0E7
:100C100062E06E0D882D0E94CC00BFEFEB1AFB0A3C
:100C2000E7E0EE16F10459F78394B810E2CFD5CF80
:100C3000F0905A01FE0C30905901350C809156010C
:100C40000DEA10E0882311F001EB10E0412CF5E0F3
:100C5000FF0ED801AD908D0145E0C42ED12CB12CF2
:100C6000B32DB40DBBA7C5010C2C02C0969587957A
:100C70000A94E2F780FF05C06BA58F2D8C190E94A6
:100C8000CC00E1E0CE1AD10870F7439424E0421280
:100C9000E0CF71CE8091820195EAE92E90E0F92EA5
:100CA0002BE2B22E38E0A32EA80ED701CD90DD9016
:100CB0007D0108E010E081E090E0002E02C0880F86
:100CC000991F0A94E2F78C219D21892B29F06B2D25
:100CD0008A2D801B0E94CC000150110960F7B3944B
:100CE000EFE2BE12E2CF5BCE809183018823C9F090
:100CF0008EE0EDE8F0E0DE01119601900D928A950C
:100D0000E1F7FE0131967F0115E1D7014D915D912B
:100D10007D0162E1812F0E94E8001A5F1F33A9F76D
:100D20002CCC80918401882309F427CC8AE0EBE95C
:100D3000F0E0DE01119601900D928A95E1F7FE0137
:100D400031967F011BE1D7014D915D917D0162E1FB
:100D5000812F0E94E8001A5F1933A9F70ECC88236F
:100D600009F4E5CC809182018A3408F0E0CC8F5FF1
:100D7000DCCC97FB072E16F4009407D077FD09D042
:100D80000E94CD0607FC05D03EF4909581959F4FBB
:100D90000895709561957F4F0895AA1BBB1B51E183
:100DA00007C0AA1FBB1FA617B70710F0A61BB70BDB
:100DB000881F991F5A95A9F780959095BC01CD0180
:100DC0000895CF92DF92EF92FF92CF93DF93CDB74A
:100DD000DEB72A970FB6F894DEBF0FBECDBF898766
:100DE0009A87A985BA852D913D914D915C91298372
:100DF0003A834B835C83232B242B252B41F424E261
:100E000039ED4BE557E029833A834B835C83698155
:100E10007A818B819C812DE133EF41E050E00E948B
:100E2000BF0769017A01A7EAB1E49B01AC010E9406
:100E3000DE0769837A838B839C83ACEEB4EFA701D2
:100E400096010E94EC079B01AC0189819A81AB81DC
:100E5000BC81820F931FA41FB51FB7FF03C001976A
:100E6000A109B048E985FA8580839183A283B38381
:100E70009F772A960FB6F894DEBF0FBECDBFDF91E5
:100E8000CF91FF90EF90DF90CF9008950E94E10600
:100E9000089581E690E00E94E1060895B0E0A0E0A8
:100EA0008093610090936200A0936300B09364000C
:100EB0000895BB274A3031F4992322F4BDE290957E
:100EC00081959F4F0C946507BB27FB015527AA27E7
:100ED000880F991FAA1FA41710F0A41B83955051C7
:100EE000B9F7A05DAA3308F0A95DA193009779F73F
:100EF000B111B1931192CB010C947E07DC01FC017E
:100F0000672F71917723E1F7329704C07C916D933D
:100F100070836291AE17BF07C8F30895DC01CB015F
:100F2000FC01E199FECF06C0FFBBEEBBE09A319613
:100F30000DB20D9241505040B8F70895DC01A40F56
:100F4000B51F4150504048F0CB01840F951F2E91A2
:100F50000E94AF0741505040D0F70895262FE199E5
:100F6000FECF9FBB8EBBE09A01970DB2021631F007
:100F70002DBB0FB6F894E29AE19A0FBE0895052EA4
:100F800097FB1EF400940E94D60757FD07D00E94DD
:100F9000F10707FC03D04EF40C94D607509540950A
:100FA000309521953F4F4F4F5F4F08959095809515
:100FB000709561957F4F8F4F9F4F08950E94130842
:100FC000A59F900DB49F900DA49F800D911D11249D
:100FD0000895B7FF0C94DE070E94DE07821B930B77
:100FE0000895A1E21A2EAA1BBB1BFD010DC0AA1F6A
:100FF000BB1FEE1FFF1FA217B307E407F50720F082
:10100000A21BB30BE40BF50B661F771F881F991FFC
:101010001A9469F760957095809590959B01AC0145
:10102000BD01CF010895A29FB001B39FC001A39F4E
:10103000700D811D1124911DB29F700D811D112411
:08104000911D0895F894FFCF03
:101048000301000000D900E30010010B01F200D4F5
:10105800000B01F20010010B01F20010010B010658
:10106800010101ED00FC00F7000101F200CF00FCD6
:1010780000E300ED00CA00C500C000E8000B01E372
:1010880000DE000101100038007C00FF011E2D3F2A
:10109800121E2D3F2101020408102000221408000E
:1010A8007F0204087F41417F41417F2018207F0350
:1010B800047804033E414141222040413F01264932
:1010C8004949323F4040403F7F0909090600000076
:1010D80000007F091929461F2040201F3E41414139
:1010E8003E7F494949417F0204027F7E1111117EEA
:1010F8003E4149497A3E5149453E00427F400042BF
:10110800615149462141454B311814127F1027453A
:101118004545393C4A494930017109050336494971
:081128004936064949291E0061
:00000001FF
